:400000000040002011000000890A0000890A000080B500AF00F066FD80B584B000AF021CFB1D1A70204A3B1C0B3312781A701F4A3B1C0A3312781A700423013BFB6018E040
:400040001B4B1868391C0B31FA68131C5B009B18C3185B780B70164B1868391C0A31FA68131C5B009B18C3189B780B70FB68013BFB60FB68002B0ADB0D4B1968FA68131CF1
:400080005B009B185B5CFA1D12789A42D8D9094B3A1C0B3212781A60074B3A1C0A3212781A60BD4604B080BDCCF1FF0FCDF1FF0FD00000201CFF0B4020FF0B4080B500AF4B
:4000C000234B12221A603020FFF7A6FF214B224A1278D2B21A60052002F0B4FF1F4B35221A6002F051FFFA235B00181C02F086FF012002F059FF1A4B1A4A1A601A4B80227A
:40010000D2051A60194B1A4A1A601A4B194A126808218A431A60FA23DB00181C02F0EEFE154B181C02F08EFF144B882292011A60134B144A1A60144B802212061A60134B20
:400140008022D2021A60124B40221A60BD4680BD3000104028FF0B40FDF1FF0F2CFF0B4004010B40060000800C020B407C002E402D3E00006CF02E40DC050000000301403F
:400180000000014040FF008008010B4000010B400401014080B582B000AF72B6494B00221A60FB1D00221A7023E0FB1D1A78131C5B009B185B00444A9B183B603B681A78D1
:4001C000597809020A43997809040A43DB781B0613431A1C3B6819795B791B020B439BB2101C191C00F002FDFB1D1A78FB1D01321A70FB1D1B78012BD7D9344A344B101C2B
:40020000191C00F003FD334BEE2212061A60324B992212041A60314BD82212041A60304B20221A602F4BC42292021A602E4B20221A602E4BC0221A602D4BD82212041A60FA
:400240002C4B802212021A602B4BC0221A602B4BD82212041A602A4B992212041A60294B992212041A60284B992212041A60274B802212061A60264B992212041A60254BF6
:40028000244A1278D2B202210A43D2B21A70224B214A1278D2B23C218A43D2B214210A43D2B21A701B4B1B4A1278D2B216210A43D2B21A70FFF702FF00F0E8FCBD4602B035
:4002C00080BDC0466CF02E406C350100783501007C35010000000240000102400800044000010440080104401801044000020440080204400C0204400003044008030440B3
:4003000000500F4010500F4020500F4024500F4030500F4000700F4001700F4010B5064C2378002B07D1054B002B02D0044800E000BF0123237010BD2004002000000000EA
:40034000FC31010008B5084B002B03D00748084900E000BF07480368002B03D0064B002B00D0984708BDC04600000000FC31010024040020C80000200000000080B584B08D
:4003800000AF786039607B68272B4DD004D8012B09D0262B35D0A3E0282B4AD01222FF3293424DD09CE0504B181C03F0B5F83B1C0833181C03F0F0FF3B1C0F3306221A706F
:4003C00012E03B1C0F331B78013B3A1C0832D35C464A101C191C03F00FF83B1C0F331A783B1C0F33013A1A703B1C0F331B78002BE7D13F4B181C03F08FF8002000F0DAFC43
:400400006EE03C4B1B78042B04D13B4B181C03F083F808E0374B1B78032B04D1374B181C03F07AF85CE05BE0354B181C02F0E4FF56E0344B00221A70002000F0BBFC4FE0B6
:400440002B4B181C03F068F82F4B181C03F064F82E4B181C03F060F83B1C0F3300221A7034E03B1C0F331A782949131C5B009B185B00CB189A88274B9A4220D13B1C0F331F
:400480001A782349131C5B009B185B00595A3B1C0F331A781E48131C5B009B185B00C3185B88994207D21C4B181C03F035F8154B01221A7003E0194B181C03F02DF83B1CA6
:4004C0000F331A783B1C0F3301321A703B1C0F331B78022BC5D9064B181C03F01DF8C046BD4604B080BDC0460032010010320100183201001C2900201C3201003432010072
:400500004C3201003D0400206032010078320100640100200A18000090320100C432010080B500AF154B1B78042B09D1012002F047FB002002F068FB012002F08BFB1AE0FF
:400540000E4B1B78032B09D1002002F039FB012002F05AFB012002F07DFB0CE0074B1B78022B08D1012002F02BFB012002F04CFB002002F06FFBBD4680BDC0461C290020BD
:4005800080B500AF034B01221A7002F0A7FABD4680BDC0463C04002090B583B000AF62B69B4B181C02F0B2FA02F090FB994B181C00F0B2FB984B181C02F0F2F8974B181CF1
:4005C00000F0C8FD00E0C04603F0EAFEFFF7A8FF934B1B78012B10D1924B1A785B781B021A4300231204120C1B0C1B041343181C00F0D4FC8A4B00221A7002F00BFC021C2F
:40060000FB1D1A70FB1D1B78002B00D1FFE0FB1D1B78313B3D2BD6D89A00834BD3181B689F46824B181C02F0E7FE7E4B1A785B781B021A4300231204120C1B0C1B04134337
:40064000181C002102F0A4F9E1E0794B181C02F0D3FE744B1A785B781B021A4300231204120C1B0C1B041343181C012102F090F9CDE0704B181C02F0BFFE6A4B1A785B7853
:400680001B021A4300231204120C1B0C1B041343181C022102F07CF9B9E0674B181C02F0ABFE604B1A785B781B021A4300231204120C1B0C1B041343181C032102F068F9CD
:4006C000A5E05E4B181C02F097FE564B1A785B781B021A4300231204120C1B0C1B041343181C042102F054F991E0554B181C02F083FE4C4B1A785B781B021A43002312049F
:40070000120C1B0C1B041343181C052102F040F97DE04C4B181C02F06FFE424B1A785B781B021A4300231204120C1B0C1B041343181C062102F02CF969E0434B181C02F025
:400740005BFE384B1A785B781B021A4300231204120C1B0C1B041343181C072102F018F955E03A4B181C02F047FE2E4B1A785B781B021A4300231204120C1B0C1B041343FC
:40078000181C082102F004F941E03B1C01225A703B1C181C05F06BF83B1C181C00F040F93C1D3B1C181C05F089F8031C23803B1D1B88002B17D13B1C1B78181C00F0EAF8D7
:4007C000031CDAB2FB1C1A70FB1C002001211A1C00F03EFDFB1C1B785BB21D4A101C191C02F00AFE13E012E00E4BFC1C1A785B781B021A4300231204120C1B0C1B04134352
:40080000181C00210122231C00F06AFDC046DAE6810500007D0300008D080000550900003C0400202C290020B033010000330100143301002433010034330100443301007E
:40084000543301006433010070330100843301008C33010080B586B000AFF860B9607A6000237B6109E0BB685A1CBA601B78181C02F062FA7B6901337B617A697B689A4291
:40088000F1DB7B68181CBD4606B080BD80B588B000AF786039607B68402B2FD05822FF3293424BD13B1C14333A6803CA03C33B1C1F3300221A7012E03B1C14335B681A68EC
:4008C0003B1C1F331B78D3181B78181C02F0AEFD3B1C1F331A783B1C1F3301321A703B1C1F331B789AB23B1C14335B689B889A42E2D3144B181C02F00FFE1FE03A1C0C320A
:400900003B68111C1A1C0823081C111C1A1C02F062FD0D4B181C02F0FFFD3B1C0C339B780A4A101C191C02F067FD3B1C0C339B79074A101C191C02F05FFDC046BD4608B015
:4009400080BDC046A8340100AC340100C8340100D834010080B582B000AF786039607B68B222FF32934204D0D9225200934205D009E0064B181C02F0CFFD04E0044B181CCA
:4009800002F0CAFDC046BD4602B080BDE83401000435010080B584B000AF021CFB1D1A703B1C0F3300221A70FB1D1B78082B2BD89A001A4BD3181B689F463B1C0F33EE2236
:4009C0001A7022E03B1C0F33F4221A701DE03B1C0F33FA221A7018E03B1C0F33FD221A7013E03B1C0F33FE221A700EE03B1C0F33FF221A7009E03B1C0F3300221A703B1CCF
:400A00000F3303221A7000E0C0463B1C0F331B785BB2181CBD4604B080BDC0462035010080B582B000AF78607B681B78082B24D89A00144BD3181B689F467B6801221A70B3
:400A40001CE07B6801221A7018E07B6802221A7014E07B6803221A7010E07B6804221A700CE07B6805221A7008E07B6806221A7004E07B6807221A7000E0C046BD4602B046
:400A800080BDC0464435010080B500AFFEE7C04680B584B000AF7860104B1A687B68D3181A1C0F4BD21A8023DB009A4209DC0B4B1B68FB60094B1A687B68D218074B1A60B1
:400AC00007E002F04DFC031C0C221A6001235B42FB60FB68181CBD4604B080BDCC0000206829002080B586B000AF224B7B61224B3B61204B7B6135E03B691B68FB603B69DB
:400B00005B68BB603B699B683B6000237B600CE0FB681A68BB681A60BB680433BB60FB680433FB607B6804337B607A683B689A42EED13B69DB683B6000237B6008E0BB681F
:400B400000221A60BB680433BB607B6804337B607A683B689A42F2D13B6910333B617B69013B7B617B69002BC6D102F0FFFBFFF713FDFEE701000000103D010080B582B099
:400B800000AF154B144A126801218A431A6000237B600FE07B68032B04D8104B7A689200D35800E00E4B0F4A796889008B507B6801337B607B682F2BECD9FFF7EBFA0A4B16
:400BC00000221A60044B044A126801210A431A60BD4602B080BDC0460000104000000000890A000000000020C000002080B582B000AF786039607A683B68101C00211A1CEF
:400C000002F0F2FBBD4602B080BDC04680B586B000AF7860396000233B6100237B612EE07B699B007A68D3181B68BB603B1C0F33BA681A70BB68FF229343BB6017E03B6987
:400C40005B003A68D3181B781A1CBB68D3183A69520039688A1852781A703B6901333B613B1C0F331A783B1C0F33013A1A703B1C0F331B78002BE2D17B6901337B617B694A
:400C8000002BCDD0BD4606B080BDC04680B500AF054B03221A60054B03221A60044B00221A60BD4680BDC0463000304030003140000E3F4080B500AF074B00221A70074B7B
:400CC00000221A70064B00221A7000F00DF8054B00221A70BD4680BD3C290020282900203A2900201029002080B500AF084B181C00210A2202F078FB064B181C002106225D
:400D000002F072FB01F03AFD00F020FABD4680BD302900202029002090B585B000AF78603B1C0E3301221A801B4B1B78002B04D1FFF7C0FF184B01221A707B68002B24D0EA
:400D4000164B7A681A603C1C0E341549154A80239B00081C111C1A1C03F038FB031C23803B1C0E331B88002B0FD10F4B01221A700E4B08221A703C1C0E340D4B181C0F2102
:400D800011220DF089FE031C23803B1C0E331B88181CBD4605B090BD400400201429002029160000480400201C2900201D2900201436010090B585B000AF021CFB1D1A70DB
:400DC000294B1B78042B42D1284B1B78DBB21A1C042313403BD1FB1D1B78002B0BD1244B1E221A82224B5B6820221A80204B5B6830225A8010E0FB1D1B78012B0CD11C4BED
:400E000096221A821A4B5B68C822D2001A80184B5B688022D2015A80164BFA1D12781A703C1C0E34124B181C0CF00CF8031C23803B1C0E331B88002B08D10C4B1B78DBB23C
:400E400004221343DAB2094B1A7005E004E03B1C0E33832252001A803B1C0E331B88181CBD4605B090BDC0461C2900203C290020240100203A29002080B584B000AF78607E
:400E80000A1CFB1C1A700023BB60BB68002B20D07B689A79BB681A703B1C0F3300221A7012E03B1C0F331B780133BA68D3183A1C0F32127879688A5C1A703B1C0F331A780B
:400EC0003B1C0F3301321A703B1C0F331B78052BE7D9BD4604B080BD80B582B000AF78607B681B781A1C7B6801331B781B029BB213439BB2181CBD4602B080BD90B585B09B
:400F000000AF78603B1C0F3300221A707B689A890B239A4237D17B681A1D7B683C1C0F34101C00211A1C40230DF0CEFD031C23703B1C0F331B78002B1DD17B685B68181CB6
:400F4000FFF7CAFF031C1A1C022313409BB2002B08D0104B1B68822251007A68081C111C984708E00B4B1B680622111CFF317A68081C111C9847084B1B78DBB201229343EC
:400F8000DAB2054B1A703B1C0F331B78181CBD4605B090BD142900203C29002090B585B000AF3B1D18802B4B1B78022B05D03B1C0C33832252001A8045E0FFF795FE264A1B
:400FC0003B1D111C1A1C0223081C111C1A1C02F002FA224B00221A703B1C0F3300221A7014E03B1C0F331A78131C5B009B185B001B4A9B18181C0021042202F0F5F93B1CBD
:401000000F331A783B1C0F3301321A703B1C0F331B78022BE5D93C1C0C343B1D18680CF067FD031C23803B1C0C331B88002B0AD10C4B01221A700C4B1B78DBB202221343A9
:40104000DAB2094B1A703B1C0C331B88181CBD4605B090BD1C2900202C2900203B290020640100201D2900203C29002080B582B000AF78607B68DA880D4B9A4215D10D4B21
:401080005B88002B08D17B689A880A4B5A807B689A78084B1A7008E0074B1B687A68063286214900081C111C9847BD4602B080BD052A0000202900201429002080B582B0FE
:4010C00000AF78607B689A880B4B9A4211D10B4B9B88002B04D17B685A88084B9A8008E0074B1B687A68043286214900081C111C9847BD4602B080BD02290000202900202A
:401100001429002080B582B000AF78600C4B5A887B689B899A420FD10A4B1B68832251007A68081C111C9847074B1B78DBB201229343DAB2044B1A70BD4602B080BDC046C0
:4011400020290020142900203C29002080B500AFBD4680BD80B582B000AF7860024B7A681A60BD4602B080BDB814002090B587B000AF78603B1C173300221A70D9235B00E4
:401180003B61304B1B68002B54D07B689A890F239A424FD10E235A1E2B49131C9B009B189B00CB185A6880235B01134036D07B685B68181CFFF790FE031C1A1C01231340B6
:4011C0009BB2002B02D0B223FF333B617B681A1D7B683C1C1734101C00211A1C40230DF073FC031C23703B1C17331B78002B19D13B1C08337A6812881A803B1C08330022B9
:401200009A703B1C083300225A600E4B1B6839693A1C0832081C111C984703E03B1C173306221A70094B1B78DBB201229343DAB2064B1A703B1C17331B78181CBD4607B0CC
:4012400090BDC046B8140020143601003C29002080B586B000AF3A60FB1D021C1A70BB1D0A1C1A703B1C163301221A803B68002B2FD0FB1D1B78002B2BD1BB1D1B78012BD0
:4012800027D13B681B785BB2002B22DC3B681B785BB21A1C12321CDB0E223B1C08331A81BB1D1B789AB23B1C08339A803B1C08333A681A603B1C0833181C0021002200237C
:4012C0000DF002FC031C002B03D13B1C163300221A803B1C16331B88181CBD4606B080BD90B589B000AF3C1C0C3420807B603B1C0B3319703B1C0A331A703B1C1E330122C5
:401300001A807B68002B53D03B1C0B331B78002B4ED13B1C0A331B78012B49D10F235A1E2749131C9B009B189B00CB1808339B68181CFFF7D1FD031C1A1C012313409BB29F
:40134000002B30D00E223B1C10331A813B1C10337A681A603B1C0A331B789AB23B1C10339A803B1C1033181C0021002200230DF0ABFB031C002B1BD1124B1B78022B05D0C1
:401380003B1C1E33832252001A8011E03C1C1E343B1C0C333A1C10321868111C0CF00EFF031C238004E03B1C1E330422FF321A803B1C1E331B88181CBD4609B090BDC046A8
:4013C000143601001C29002090B585B000AF78603C1C0F347B68181CFFF790FD031C23703B1C0F331B78002B0ED11C4B1B78DBB21A1C0123134007D03C1C0F347B68181C62
:40140000FFF7B4FE031C2370144B1B78DBB21A1C012313401FD13B1C0F331B78002B16D03B1C083312229A707B689A893B1C08331A803B1C08333A1C0F321278DA707B6817
:401440003A1C08321868111C0CF09AFE03E07B6818680CF0FDFEBD4605B090BD3C29002080B582B000AF7860BD4602B080BDC04680B582B000AF7860BD4602B080BDC04608
:4014800080B582B000AF7860BD4602B080BDC04680B582B000AF7860BD4602B080BDC04680B582B000AF7860064B1B78DBB21A1C0123134003D07B68181C01F0A1FABD46DB
:4014C00002B080BD3C29002080B500AF094B00225A70084B00221A70074B1B78052B03D1054B07221A7002E0034B08221A70BD4680BDC0462C2900201D29002080B582B0FD
:4015000000AF78607B681B78032B3ED1204B1B78DBB21A1C0223134037D01E4B1B78022B10D002DC012B05D024E0032B12D0042B18D01FE0184B1B680822FF32101C002191
:40154000984717E0144B1B6884225200101C002198470FE0104B1B680A22FF32101C0021984707E00C4B1B6885225200101C00219847C046064B1B78DBB202229343DAB256
:40158000034B1A70034B00221A70BD4602B080BD3C2900201D2900201429002080B500AFBD4680BD80B584B000AF78603B1C0E3300221A707B689B79002B1CD13B1C0F331F
:4015C00000221A7012E03B1C0F331B787A68D35C002B04D03B1C0E3301221A700BE03B1C0F331A783B1C0F3301321A703B1C0F331B78052BE7D93B1C0E331B78181CBD46E2
:4016000004B080BD80B582B000AF021CBB1D1A80BD4602B080BDC04680B582B000AF7860BD4602B080BDC04680B584B000AF021C3960FB1D1A70C64B1B78DBB2012213431A
:40164000DAB2C34B1A70FB1D1B78FA2B00D963E19A00C04BD3181B689F463B1C0C3307221A703B1C0C3300225A703B1C0C33181C04F024F93B1C0C3307221A703B1C0C33DC
:4016800001225A703B1C0C33181C04F017F9B24B1B68181CFFF786FF031C002B11D0AE4B1B68181C02F080FEAB4B1B68181C0021FFF7E2FBA84B1B68181C0121FFF7DCFBBB
:4016C00019E0A64B1A78A64B1A70A64B1A78A44B5A70A54B1A78A24B9A70A14B181C02F063FE9F4B181C0021FFF7C6FB9C4B181C0121FFF7C1FB00200BF066FA9B4B04225F
:401700001A700AE13B68181CFFF7F8FE05E13B681A78974B1A7000E18D4B1B78DBB21A1C202313400ED1934B1B78102B02D1914B0522DA70904B1A788E4B101C191C0BF0F8
:401740004BFBEAE0E9E03B68181CFFF765FFE4E03B68181CFFF760FF844B02221A70DCE0824B04221A70D8E0804B1B78022B41D0774B1B78DBB21A1C012313403AD0744B0D
:401780001B78DBB21A1C042313400BD0774B03221A706F4B1B78DBB204229343DAB26C4B1A7027E06A4B1B78DBB21A1C082313400BD06E4B04221A70654B1B78DBB208229C
:4017C0009343DAB2624B1A7014E0684B1B78032B10D1664B04221A70684B1B78002B09D10120FFF7E7FA031C002B03D15F4B03221A7092E091E03B681B88181CFFF702FF98
:401800008BE05D4A3B68111C1A1C0223081C111C1A1C01F0E0FD584B1B789A00584BD318584A111C1A1C0423081C111C1A1C01F0D2FD554B00221A70FFF7B0FE6DE0FFF712
:4018400043FE6AE03B685A88504B9A4205D83B1C0E333A6852881A8004E03B1C0E33802292001A803B683A1C0E321288198800230904090C1B0C1B040B43181C111C0CF062
:401880008BFC4AE03B68181CFFF79EFD45E03B68181CFFF7E5FD40E03B68181C00F07CF83BE03B68181C00F031FA36E03B68181C00F0E2FC31E03B68181C00F0EFFD2CE048
:4018C0003B68181CFFF7DCFD27E03B68181CFFF719FC3B68181CFFF7DBFD1D4B1B78DBB21A1C0123134004D13B6818680CF0C6F813E012E03B68181CFFF7D2FD0DE03B68BC
:40190000181CFFF7B5FD08E0214B1B7801221343DAB21F4B1A7000E0C0460D4B1B78DBB21A1C112313400FD0094B1B78DBB201229343DAB2064B1A70164B1B68FA1D117899
:401940003A68081C111C9847BD4604B080BDC0463C29002080370100400100207CF1FF0F380100207DF1FF0F7BF1FF0F1C29002028290020780100202C2900203A290020CC
:4019800000360100182900201D290020FF010000102900201429002080B586B000AF786000233B61754B1B78012B00D0E2E0744B1B78DBB21A1C0223134000D1DAE03B1C42
:4019C0000C337A6812891A803B1C0C331B88062B05D03B1C0C331B88142B00D0C3E03B1C0A337A6852891A803B1C143300221A8085E07B685A683B1C14331B88D3183B6150
:401A00003B1C0C331B88062B00D06EE03B1C0F3300221A703B1C173300221A705BE03B1C17331A785749131C5B009B185B00CB189A883B699B889A4246D13B1C17331A78F4
:401A40005049131C5B009B185B005B5A002B1AD13B1C17331A784B49131C5B009B185B003A69C9180423081C111C1A1C01F0B3FC454B1B780133DAB2434B1A703B1C0F33A5
:401A800001221A7020E03B1C17331B78012B0ED83B1C17331B785A1C3A49131C5B009B185B00CB189A883B699B889A420CD0374B1B683A6904320C21FF31081C111C98477F
:401AC0003B1C0F3301221A703B1C17331A783B1C173301321A703B1C17331B78022B04D83B1C0F331B78002B99D03B1C1433391C14313A1C0C32098812888A181A803A1C89
:401B000014323B1C0A3312881B889A4200D270E73B69002B1ED03B695A881D4B9A4219D1164B02221A70184B00221A7000F032F8031C002B0ED0154B1B6884225200101CB1
:401B4000002198470E4B1B78DBB202229343DAB20B4B1A700A4B1B78DBB201229343DAB2074B1A7006E0094B1B680822FF32101C00219847BD4606B080BDC0461D2900200A
:401B80003C290020640100203B29002014290020FFFF000090B583B000AF05E01A4B1B780133DAB2184B1A70174B1B78022B0AD8154B1B781A1C1549131C5B009B185B0068
:401BC0005B5A002BEAD0104B1B78022B11D80E4B1B781A1C131C5B009B185B000B4A9A18BC1D0B4B1868111C0BF09AFF031C238003E0BB1D802252001A80BB1D1B88181C5C
:401C0000BD4603B090BDC0463B290020640100202C29002080B582B000AF78607B68DB88364A9B18042B00D963E09A00344BD3181B689F46334B1B88002B04D17B689A88D9
:401C4000304B1A8056E0304B1B687A68063286214900081C111C98474CE02A4B5B88002B04D17B689A88274B5A8043E0264B1B687A68063286214900081C111C984739E0A2
:401C8000204B9B88002B04D17B689A881D4B9A8030E01D4B1B687A68063286214900081C111C984726E0174BDB88002B04D17B689A88144BDA801DE0134B1B687A68063259
:401CC00086214900081C111C984713E00D4B1B89002B04D17B689A880A4B1A810AE00A4B1B687A68063286214900081C111C984700E0C046BD4602B080BDC04600D6FFFF32
:401D00006C3B0100302900201429002080B592B000AF7860CE4B1B78DBB21A1C0223134000D124E23B1C3E337A6812891A803B1C3C337A6852891A807B685B683B64C54B18
:401D40001B78032B00D0E7E03B1C463300221A80D8E03B6C181CFFF7BFF8031C1A1C3B1C24331A803B6C02333B643B6C1A783B1C24339A703B6C01333B643B6C181CFFF7EB
:401D8000ABF8031C1A1C3B1C24339A803B6C02333B643B1C3E331B88152B12D13B1C243302229A753A1C2A323B6C111C1A1C1023081C111C1A1C01F00EFB3B6C10333B6480
:401DC0003BE03B1C3E331B88072B36D13B1C243301229A753B6C181CFFF77EF8031C1A1C3B1C2433DA803B6C02333B649A4B1B781A1C9A49131C5B009B185B00CB189B88F6
:401E0000974A93420DD0974A934210D0C0225201934200D011E03B1C2433181CFFF7FAFE0BE03B1C2433181CFFF720F905E03B1C2433181C00F0C0FCC0463B1C24339988BA
:401E4000854B1B781A1C8548131C5B009B185B00C3185B88994243D17F4B1B780133DAB27D4B1A7000F090F9031C002B37D00222FF3293422BD1774B04221A70764B002203
:401E80001A7000F0C1FA031C002B1ED081225200934212D16F4B05221A70734B1B681222FF32101C00219847694B1B78DBB202229343DAB2664B1A7008E06B4B1B6885226E
:401EC0005200101C0021984700E0C04608E0664B1B680A22FF32101C0021984700E0C0465B4B1B78DBB201229343DAB2584B1A703B1C4633391C46313A1C3E3209881288EE
:401F00008A181A803A1C46323B1C3C3312881B889A4200D21DE72AE14E4B1B78022B00D025E13B1C463300221A8017E13B6C181CFEF7D2FF031C1A1C3B1C0C331A803B6C57
:401F400002333B643B6C181CFEF7C6FF031C1A1C3B1C0C335A803B6C02333B643B6C181CFEF7BAFF031C1A1C3B1C0C339A803B6C02333B643B1C3E331B88062B04D13B1CE7
:401F80000C3302229A7574E03B1C3E331B88082B00D06EE03B1C0C3301229A753B6C181CFEF79AFF031C1A1C3B1C0C33DA803B6C02333B643B1C443300221A8034E03B1CB9
:401FC00044331A882549131C5B009B185B00CB189A883B1C0C33DB889A421ED13B1C44331A881E49131C5B009B185B005B5A002B13D13B1C44331A881849131C5B009B18B8
:402000005B00381C0C300222C91882180423081C111C1A1C01F0DFF90BE03B1C44331A883B1C443301321A803B1C44331B88022BC5D9094B1B781A1C0849131C5B009B18C2
:402040005B00CB189B881A1C084B9A4210D010E03C2900201D2900203B29002064010020011800000A1800001429002012180000C0463B1C0C3319883E4B1B781A1C3E48FF
:40208000131C5B009B185B00C3185B88994253D1384B1B780133DAB2364B1A70FFF77AFD031C002B47D080225200934233D1334B03221A702F4B00221A7000F065F8031C90
:4020C000002B26D00222FF32934212D12B4B05221A702B4B1B681222FF32101C00219847284B1B78DBB202229343DAB2254B1A7010E0234B1B680A22FF32101C0021984784
:40210000204B1B78DBB202229343DAB21D4B1A7000E0C04610E01A4B1B6884225200101C00219847174B1B78DBB202229343DAB2144B1A7000E0C046124B1B78DBB2012243
:402140009343DAB20F4B1A703B1C4633391C46313A1C3E32098812888A181A803A1C46323B1C3C3312881B889A4200D2DEE6BD4612B080BD3B290020640100201D2900209C
:40218000142900203C29002090B583B000AF05E01D4B1B780133DAB21B4B1A701A4B1B78022B0AD8184B1B781A1C1849131C5B009B185B005B5A002BEAD0134B1B78022BA2
:4021C00018D8114B1B78181CBC1D114A0F49031C5B001B185B00585ACB185B881B04191C014300230B1C1068191C0BF065FC031C238003E0BB1D0222FF321A80BB1D1B88EE
:40220000181CBD4603B090BD3B290020640100202C29002080B582B000AF3B1C00221A803B1C00225A80114B1B78002B09D1104B5B8801339AB23B1C1A800E4B1A893B1C77
:402240005A803B1D3A1C12681A603A1D002311880904090C1B0C1B040B43528812041B041B0C1343181CBD4602B080BD3B290020202900206401002080B58AB000AF7860FF
:402280003B1C083300225A805A4B1B78042B00D0ADE0594B1B78DBB21A1C0223134000D1A5E03B1C1E337A6812891A807B681A7B3B1C08331A753B1C08337A6812881A8004
:4022C0003B1C08331B7D012B04D13B1C263304221A8003E03B1C263312221A807B685B683B623B1C243300221A803EE03B6A181CFEF7F2FD031C1A1C3B1C08335A803B6AF4
:4023000002333B623B1C08331B7D022B0ED13A1C0C323B6A111C1A1C1023081C111C1A1C01F059F83B6A10333B6214E03B6A181CFEF7D2FD031C1A1C3B1C08339A803B6A41
:4023400002333B622D4B1B78002B04D13B1C0833181CFEF7B3FE3B1C2433391C24313A1C2632098812888A181A803A1C24323B1C1E3312881B889A42B8D33B1C08335A883B
:402380001F4B1B889A422AD11C4B1B780133DAB21A4B1A7000F038F8031C002B1ED081225200934212D1134B05221A70154B1B681222FF32101C002198470F4B1B78DBB28E
:4023C00002229343DAB20C4B1A7008E00D4B1B6885225200101C0021984700E0C046064B1B78DBB201229343DAB2034B1A70BD460AB080BD1D2900203C2900203B29002071
:40240000BC1400201429002090B583B000AFFFF701FF031C1A1C3B1C1A600BE01C4B1B780133DAB21A4B1A70FFF7F4FE031C1A1C3B1C1A603B1C1B88012B09D03B1C5B8831
:40244000002B05D03B1C1A883B1C5B889A4203D90F4B1B78002BE1D00D4B1B78002B0DD1BC1D0C4B3A1C1868111C0BF00FFB031C23803B1C5A88084B1A8003E0BB1D812236
:4024800052001A80BB1D1B88181CBD4603B090BD3B2900202C290020BC14002080B582B000AF7860B04B1B78DBB21A1C0223134000D156E17B689B790A2B00D051E1AB4BB2
:4024C0001B78052B00D94BE19A00A94BD3181B689F46A64B02221A70A64B00221A70FFF759FB031C002B4ED08022520093423AD1A14B1B681022FF32101C002198479B4B8D
:4025000003221A709B4B00221A70FFF73DFE031C002B26D00222FF32934212D1934B05221A70954B1B681222FF32101C002198478D4B1B78DBB202229343DAB28A4B1A707C
:4025400010E08D4B1B680A22FF32101C00219847854B1B78DBB202229343DAB2824B1A7000E0C04610E0844B1B6884225200101C002198477C4B1B78DBB202229343DAB201
:40258000794B1A7000E0C046774B1B78DBB201229343DAB2744B1A70E3E0764B1B780133DAB2744B1A70FFF7F5FA031C002B3FD080225200934233D16B4B1B78DBB2012213
:4025C0009343DAB2684B1A70684B03221A70694B00221A70FFF7D8FD031C002B1ED00222FF32934212D1614B05221A70624B1B681222FF32101C002198475B4B1B78DBB286
:4026000002229343DAB2584B1A7008E05A4B1B680A22FF32101C0021984700E0C04608E0554B1B6884225200101C0021984700E0C0464D4B1B78DBB201229343DAB24A4B81
:402640001A708EE04B4B1B780133DAB2494B1A70FFF79AFD031C002B37D00222FF3293422BD1424B04221A70424B00221A70FFF7CBFE031C002B1ED081225200934212D13D
:402680003A4B05221A703C4B1B681222FF32101C00219847344B1B78DBB202229343DAB2314B1A7008E0344B1B6885225200101C0021984700E0C04608E02F4B1B680A2218
:4026C000FF32101C0021984700E0C046264B1B78DBB201229343DAB2234B1A7041E0254B1B780133DAB2234B1A70FFF78DFE031C002B1ED081225200934212D11B4B0522BA
:402700001A701D4B1B681222FF32101C00219847154B1B78DBB202229343DAB2124B1A7008E0154B1B6885225200101C0021984700E0C0460C4B1B78DBB201229343DAB2D4
:40274000094B1A700DE0084B1B78DBB21A1C0123134004D07B68181C00F0ACF901E000E0C046BD4602B080BD3C2900201D290020803B01003B2900201429002080B500AFC9
:40278000054B181C0021242200F02EFE034B00221A80BD4680BDC04640290020C014002080B582B000AF7860024B7A681A60BD4602B080BDC414002080B582B000AF7860D6
:4027C0007B68DB886E4A9B182D2B00D9D4E09A006C4BD3181B689F466B4B5B88002B08D17B689A88684B5A807B689A78664B1A70C3E0664B1B687A68063286214900081C3B
:40280000111C9847B9E0604BDB88002B08D17B689A885D4BDA807B689A785B4B1A71ACE05A4B1B687A68063286214900081C111C9847A2E0544B5B89002B08D17B689A88B8
:40284000514B5A817B689A784F4B1A7295E04F4B1B687A68063286214900081C111C98478BE0494BDB89002B08D17B689A88464BDA817B689A78444B1A737EE0434B1B6822
:402880007A68063286214900081C111C984774E03D4B5B8A002B08D17B689A883A4B5A827B689A78384B1A7467E0384B1B687A68063286214900081C111C98475DE0324B6C
:4028C000DB8A002B08D17B689A882F4BDA827B689A782D4B1A7550E02C4B1B687A68063286214900081C111C984746E0264B5B8B002B08D17B689A88234B5A837B689A786E
:40290000214B1A7639E0214B1B687A68063286214900081C111C98472FE01B4BDB8B002B08D17B689A88184BDA837B689A78164B1A7722E0154B1B687A68063286214900DF
:40294000081C111C984718E00F4B5B8C002B09D17B689A880C4B5A847B6899780A4A2023D1540AE0094B1B687A68063286214900081C111C984700E0C046BD4602B080BD2C
:40298000DDD5FFFF983B0100402900201429002090B585B000AF3B1D18800A1CFB1C1A70FB1C1B78082B04D93B1C0E3301221A801BE0FB1C1B78104A9B00D3185A883C1CFF
:4029C0000E343B1D1868111C0BF0C8F8031C23803B1C0E331B88002B07D1FB1C1B78064A9B00D3185A88054B1A803B1C0E331B88181CBD4605B090BD40290020C014002098
:402A000080B586B000AF7860264B1B68002B46D0254B1B88002B42D03B1C173300221A7038E03B1C17331B78204A9B00D3185A881D4B1B889A4226D13B1C0C337A681288C4
:402A40001A803B1C0C333A1C173212789A707B681A1D3B1C0C335A60154B1B78DBB201229343DAB2124B1A700F4B00221A800D4B1B685822111CFF313A1C0C32081C111CF0
:402A80009847C0460BE03B1C17331A783B1C173301321A703B1C17331B78082BC1D9BD4606B080BDC4140020C0140020402900203C29002080B582B000AF78607B68002BC8
:402AC00006D0054B1B88002B02D0034B00221A80BD4602B080BDC046C014002080B582B000AF094B1B68DAB2FB1D7F218A431A70054BFA1D12781A60FB1D1B78DB09DBB20B
:402B0000181CBD4602B080BD1002044080B582B000AF786000F04AF87B68181C00F008F8032000F011F800F037F8BD4602B080BD80B582B000AF7860024B7A689A64BD46A7
:402B400002B080BD0000002090B585B000AF021CFB1D1A701623FB603C1C0B3400F085F9031C23700A4B0A4A11680A4A1140FA1D1078FA68041C9440221C0A431A603B1CFA
:402B80000B331B78181C00F074F9BD4605B090BD00E400E0FFFF3FFF80B500AF024B04221A60BD4680BDC04600E100E080B500AF024B04221A60BD4680BDC04680E100E07E
:402BC00080B584B000AF021CFB1D1A700D4B1B68D9B23B1C0F337F220A401A70FB1D1B78DB01D9B23B1C0F333A1C0F3212780A431A70044B3A1C0F3212781A60BD4604B045
:402C000080BDC0460003044080B584B000AF021CFB1D1A700E4B1B68DAB23B1C0F3340218A431A70FB1D1B789B01DAB240231340D9B23B1C0F333A1C0F3212780A431A70D4
:402C4000034B3A1C0F3212781A60BD4604B080BD0002044080B584B000AF021CFB1D1A700E4B1B68DAB23B1C0F3340218A431A70FB1D1B789B01DAB240231340D9B23B1C35
:402C80000F333A1C0F3212780A431A70034B3A1C0F3212781A60BD4604B080BD0003044080B500AF00F05EF8BD4680BD80B500AF054B054A1268802109060A431A6000F0E8
:402CC00017F8BD4680BDC0460000244080B500AF064B1B78002B04D1FFF7E2FF034B01221A70FFF7E3FFBD4680BDC046C814002080B500AFBD4680BD80B582B000AF00230A
:402D00007B60044B1B687B607B68181CBD4602B080BDC0464003244080B582B000AF054B1A681F2313407B607B68181CBD4602B080BDC0460803244080B582B000AF786091
:402D4000C046064B1A681F231340082BF9D0044B7A681A60BD4602B080BDC046080224404002244080B500AF184B194A1A60194B00221A60184B01221A60184B184A1A60CF
:402D8000184B07221A60184B00221A60174B01221A60174B124A1A60164B00221A60164B04221A60154B00221A60154B00221A60144B00221A60144B00221A60134B00226B
:402DC0001A60134B00221A60BD4680BD000024400B00000240002440480024400003244007000080040324401003244044002440000224400402244050002440880E244068
:402E0000C80E2440480F2440080F2440C80F2440880F244080B582B000AF00237B60FFF77BFF031C002B03D0FFF766FF031C7B60084B1A68D8239B00134005D000237B6065
:402E4000044BD82292001A607B68181CBD4602B080BDC046C00F24400230800803D00138FDD1C046C046C0467047EFF3108072B6704780F31088704780B500AF0B4B0B4ABC
:402E8000126801218A431A60094B094A126830218A4310210A431A60054B054A126807218A4301210A431A60BD4680BD00F02E4000FF2E4080B500AF0E4B0E4A12680221C4
:402EC0008A431A600C4B0C4A126807218A4302210A431A60084B084A126830218A4320210A431A60034B034A126801210A431A60BD4680BD00F02E4000FF2E4080B584B0CE
:402F000000AF78600023FB60154B154A126801210A431A60134B144A1A60144B134A1268802109020A431A607B68002B13D01023FB600DE0012000F085F800F019F8031C71
:402F4000002B02D00023FB6005E07B68013B7B607B68002BEED1FB68181CBD4604B080BD60F02E4078002E400220000010002E4080B500AF034B1A6801231340181CBD46F9
:402F800080BDC0460C002E4080B500AFFFF774FF044B044A1268802109060A431A60BD4680BDC04600F02E4080B584B000AF78600C4B1A6801231340FB607B68002B02D05A
:402FC000012B03D005E0FFF757FF06E0FFF772FF03E0002000F008F8C046FB68181CBD4604B080BD00F02E4080B582B000AF021CFB1D1A7001BEBD4602B080BD80B582B084
:4030000000AF786008E00C4B1B68181CFFF724FF7B680A4A9B187B607A6880231B029A42F1D8074B1B687A685343181CFFF714FFBD4602B080BDC046880100200080FFFF45
:403040008001002080B582B000AF021CBB1D1A80BB1D1B88044A12785343181CFFF7FCFEBD4602B080BDC0468401002080B582B000AF78600A1CBB1C1A80BB1C1A887B687E
:403080001A60BD4602B080BD80B582B000AF78600A1CBB1C1A80BB1C1A887B681A60BD4602B080BD80B582B000AF021CBB1D1A80BB1D1B88181CFFF7C5FFBD4602B080BD56
:4030C00080B500AF00F068F8BD4680BD80B500AF00F06CF8BD4680BD80B500AF00F066F8044B181C00F024F8032000F02DF8BD4680BDC046F531000080B500AF024B181C1A
:4031000000F004F8BD4680BDF531000080B582B000AF786000F04AF87B68181C00F008F8032000F011F800F037F8BD4602B080BD80B582B000AF7860024B7A681A67BD4648
:4031400002B080BD0000002090B585B000AF021CFB1D1A700623FB603C1C0B34FFF785FE031C23700B4B0B4A1268C021101C8843011CFA1D1078FA68041C9440221C0A4377
:403180001A603B1C0B331B78181CFFF772FEBD4605B090BD0CE400E080B500AF024B802252011A60BD4680BD00E100E080B500AF024B802252011A60BD4680BD80E100E03C
:4031C00090B583B000AFFC1DFFF74FFE031C2370074B074A126804218A431A6030BFFB1D1B78181CFFF745FEBD4603B090BDC04610ED00E080B500AF0FF0ECFFBD4680BD16
:40320000002934D00123002210B488422CD301242407A14204D2814202D209011B01F8E7E400A14204D2814202D249005B00F8E7884201D3401A1A434C08A04202D3001BB7
:403240005C0822438C08A04202D3001B9C082243CC08A04202D3001BDC082243002803D01B0901D00909E3E7101C10BC7047002801D00020C04307B4024802A140180290FE
:4032800003BDC046D90000000029F0D003B5FFF7B9FF0EBC4243891A1847C046002941D010B4041C4C40A44601230022002900D54942002800D5404288422CD301242407CE
:4032C000A14204D2814202D209011B01F8E7E400A14204D2814202D249005B00F8E7884201D3401A1A434C08A04202D3001B5C0822438C08A04202D3001B9C082243CC083B
:40330000A04202D3001BDC082243002803D01B0901D00909E3E7101C6446002C00D5404210BC7047002806D003DB0020C043400801E08020000607B4024802A1401802906A
:4033400003BDC046190000000029EBD003B5FFF7A7FF0EBC4243891A1847C0467047C046014B18687047C0461804002070B50E4B0E4D0024ED1AAD101E1CAC4204D0A300FD
:40338000F35898470134F8E710F0B0FC084B094D0024ED1AAD101E1CAC4204D0A300F35898470134F8E770BDF83C0100F83C0100F83C0100003D010030B50023934208D0F6
:4033C000C55C0133CC18013C2478A542F6D0281B00E0002030BD10B50023934203D0CC5CC4540133F9E710BD031C8218934202D019700133FAE770470FB40B4B13B51C6813
:40340000002C05D0A369002B02D1201C00F01CFD05ABA168201C049A019300F0AFF816BC08BC04B01847C0461804002038B5084B051C1C68002C05D0A369002B02D1201C67
:4034400000F002FD291CA268201C00F065FE38BD1804002070B5051C0E1C002804D08269002A01D100F0F0FCAC68A3891A0702D52369002B19D1281C211C00F069FB002849
:4034800013D00120404245E03178002B1BDAA269934211DA281C221C00F002FB013043425841C0B20028ECD10136A3683278013BA360002AE8D10CE023681970236819788E
:4034C0000A2903D1E6E722681170236801332360EAE7002B17DAA269934208DB22680A231370236819780A2911D1281C01E0281C0A21221C00F0D4FA013043425841C0B23F
:40350000002806D0BDE722680A2313702368013323600A2070BD000008B5034B011C1868FFF798FF08BDC04618040020936810B5013B9360002B05DA9469A34208DBCBB29F
:403540000A2B05D01368581C10601970C8B201E000F0A6FA10BDF8B5061C0F1C141CD518AC4208D02178301C3A1CFFF7DFFF0134431CF5D100E00020F8BD0000F0B59FB0B2
:40358000061C0F1C03920593002804D08169002901D100F059FC754B9F4201D1776808E0734B9F4201D1B76803E0724B9F4200D1F768BB891A070AD53B69002B07D006AD53
:4035C00000236B6120236B763023AB763BE0301C391C00F0BDFA0028F1D001204042C2E0059A111D12680591002A76DB0992013423782E2B00D181E021785F48032200F010
:40360000E3FC002807D05C492A68431A402098401043286001342178631C584806220393297600F0D1FC002800D18AE0544B002B7ED1059B072207339343083305936A6903
:40364000049953186B61039C2378002B04D10399611A029110D003E0252BF8D00134F3E7301C391C039A029BFFF775FF013075D06A69029953186B612378002B6ED0012221
:4036800052426A606A4600235B3201342B60EB60AB601370AB6521783A48052200F094FC002808D0374A0134831A012098402B6818432860EFE72B68D90603D56A4620210E
:4036C0005B3211701A0703D56A462B215B32117022782A2A84D0099B05E05242EA60022213432B6083E72278303A092A04D80A214B4301349B18F6E7099379E763782A2BE4
:4037000009D1059B02341A1D1B680592002B0DDA01235B420AE0013400232278303A092A04D80A214B4301349B18F6E7079363E705AB0093301C291C3A1C134B00E000BFD7
:4037400007E005AB0093301C291C3A1C0E4B00F091F804900499013100D070E7BB895A0600D53AE70B981FB0F0BDC0468C3C0100AC3C0100CC3C01005E3C0100623C010028
:4037800000000000583C010057350000F7B5151C01930A698B68061C0C1C934200DA131C221C2B6043321278002A01D001332B602068800602D52B6802332B602168062779
:4037C0000F401FD0231C43331B785A1E9341226892061FD5E11840313020C870211C5A1C45310978A21840320233D17012E0221C301C019919320123089FB847013011D066
:40380000009F01370097E0682968009F431A9F42EDDBD7E7221C301C01994332089FB847013002D10120404223E0206806212B68E26801400025042903D1D51AEB43DB17F3
:403840001D40A26823699A4201DDD31AED1800270097009FAF420BDA221C301C01991A320123089FB8470130DCD0009F0137EFE70020FEBDF0B50D1C8BB043350692059029
:40388000079304950B7E0C1C109A6E2B00D1A7E011D8632B22D009D8002B00D1B0E0582B00D0C0E045310B707B4D4EE0642B1CD0692B1AD0B7E0732B00D1A5E009D86F2BDA
:4038C00029D0702B00D0AEE00E68202333430B6036E0752B1FD0782B32D0A4E013680D1C191D423511601B689FE0216813680E0603D5191D11601E6805E04806F9D5191D56
:40390000116000215E5E644B002E3BDA049D2D2276422A7036E0216813680E0603D5191D11601E6804E04806F9D5191D1E881160594B227E039308276F2A1ED00A271CE0C8
:40394000231C78214533554D197011682368081D039510601E0601D50E6802E05806FBD50E88D90702D52022134323601027002E03D1226820239A432260231C0022433377
:403980001A7001E003930A276368A360002B03DB2568042295432560002E02D1049D002B0ED0049D301C391CFFF76EFC0398013D435C301C2B70391CFFF722FC061EF1D1F3
:4039C000082F09D12168C90706D5626823699A4202DC013D30232B70049E731B23612AE0086813684969050604D5181D10601B68196005E04606F8D5181D10601B681980A7
:403A000000232361049D16E01368191D11601D68281C00F01BFC63682061984200D923612069606004E0251C42352B7001232361049E00233370079E05980096211C09AA7B
:403A4000069BFFF7A3FE013002D10120404221E02A1C059806992369079DA8470130F4D02668B60705D4099BE068984212DA181C10E00025E0680999431A9D42F3DA221C80
:403A80000598069919320123079EB0470130DCD00135EFE70BB0F0BD693C01007A3C010070B5051C0E1C141C002804D08269002A01D100F0C9F9234B9C4201D16C6808E002
:403AC000214B9C4201D1AC6803E0204B9C4200D1EC68A369A360A3891A070AD52369002B07D022682369F6B2D01A626990420FDB08E0281C211C00F02BF80028F1D00120C7
:403B000040421DE0281C211C00F01EF90028F6D1A3680130013BA36023685A1C22601E706369984205D0A389301CDA0708D50A2E06D1281C211C00F007F90028DFD1301CAE
:403B400070BDC0468C3C0100AC3C0100CC3C0100344B70B51D68061C0C1C002D05D0A969002902D1281C00F06FF92F4B9C4201D16C6808E02D4B9C4201D1AC6803E02C4BBC
:403B80009C4200D1EC68A28993B2190721D4D90605D40923336040231A43A2813FE05A0713D5616B002908D0231C4433994202D0301C00F015FA00236363A389242293430F
:403BC000A3810023636023692360A38908221343A381216900290BD1A389A02292001A4080239B009A4203D0301C211C00F09CF9A38901221A4005D061690022A2604A4280
:403C0000A26103E0990700D46269A26022690020824206D1190604D540221343A3810120404270BD180400208C3C0100AC3C0100CC3C0100F7B58B89051C0C1C19075ED421
:403C40006268002A02DC276C002F1ADDE76A002F17D000222E682A60802252011A4001D0626D15E0281C216A0123B847021C411C0ED12B68002B0BD01D2B01D0162B02D11A
:403C80002E6000205EE0A38940210B43A38159E0A3895F0706D56168636B521A002B01D0276CD21B281C216A0023E76AB847A289411C06D12B68002B03D01D2B01D0162B68
:403CC00019D10023636023692360D70405D5411C02D12A68002A00D16065616B2E600029CFD0231C4433994202D0281C00F078F90020606326E040231A43A28122E0266927
:403D0000002EBED027680022BF1B01972660990700D16269A260019F002FB2DD281C216A321C019BA76AB847002806DCA389402213430120A381404204E0019F36183F1AD9
:403D40000197E8E7FEBD00000A6938B5051C0C1C002A01D100201CE0002804D08369002B01D100F071F80B4B9C4201D16C6808E0094B9C4201D1AC6803E0084B9C4200D163
:403D8000EC680C22A35E002BE4D0281C211CFFF751FF38BD8C3C0100AC3C0100CC3C0100F8B5041C071C4834002C12D0A5686668013E0CD4AB89012B07D90E22AB5E013309
:403DC00003D0381C291CFFF7BFFF6835F0E72468EAE7F8BD002310B5041C03604360836081814366C281036143618361191C08225C30FFF7F9FA054B24626362044BA3628F
:403E0000044BE362044B236310BDC046B5410000DD410000154200004142000070B54B1E68255D430E1C291C743100F021F9041E08D00021016046602A1C0C30A060683241
:403E4000FFF7D2FA201C70BD836913B5041C002B27D18364C3640365124B134A1B688262984201D101238361201C00F01FF86060201C00F01BF8A060201C00F017F8042133
:403E8000E06000226068FFF7A5FFA06809210122FFF7A0FFE06812210222FFF79BFF0123A36113BD543C0100A13D0000F8B51D4B071C1E68B269002A02D1301CFFF7C4FFE3
:403EC0004836B4687368013B05D40C22A55E002D10D06834F7E73368002B06D1381C0421FFF79CFF3060002801D03668E9E70C233B6016E001235B42E381201C0123A38179
:403F000065662560A560656025616561A5615C30291C0822FFF768FA6563A563A564E564201CF8BD543C0100F0B58B8991B0051C0C1C9A0725D40E23C95E002906DAA789B0
:403F400080231F400FD0002740260EE001AA00F0ABF90028F3DB029BF0273F02184A1F40BF187B425F418026F600281C311C00F07FF800280CD1A3899A051FD402221343F5
:403F8000A381231C4733236023610123636115E00C4B8022AB62A38920601343A38120616661002F0AD00E23E15E281C00F08EF9002803D0A38901221343A38111B0F0BD66
:403FC00000E0FFFFA13D0000C9B28218904204D003788B4202D00130F8E700207047000030B5002940D004390B68002B00DAC9181E4A1368141C002B02D14B60116033E055
:4040000099420FD208680A189A4205D113685268C01808604A6000E04B60216024E08A4203D8131C5A68002AF9D11D685C198C420BD10968691858181960904214D1146813
:404040005268091919605A600EE08C4202D90C23036009E008680C18944203D114685268001908604A60596030BDC0460C29002070B50323CD1C9D430835061C0C2D01D200
:404080000C2501E0002D3FDB8D423DD3204B1C681A1C211C002913D00868431B0DD40B2B02D90B60CC181EE08C4202D1636813601AE0486860600C1C16E00C1C4968E9E73D
:4040C000144C2068002803D1301C00F061F82060301C291C00F05CF8431C15D0C41C03239C4384420AD12560201C0B300722231D9043C31A0BD05A42E25008E0211A301CFB
:4041000000F046F80130EED10C233360002070BD0C2900200829002070B5051C0E1C141C002804D08269002A01D1FFF78DFE154B9C4201D16C6808E0134B9C4201D1AC68BA
:4041400003E0124B9C4200D1EC68A368013BA360002B10DAA269934207DB23681E70236819780A290AD1281C01E0281C311C221CFFF796FC05E02268167023685A1C2260A4
:40418000187870BD8C3C0100AC3C0100CC3C010038B5074C0023051C081C2360FCF778FC431C03D12368002B00D02B6038BDC0466429002038B50C1C0E25495F00F0ACF885
:4041C000002803DB626D1318636503E0A289024B1340A38138BDC046FFEFFFFFF8B51E1C8B89051C0C1C171CDA0505D50E23C95E0022022300F07CF8A289054B281C1340F9
:40420000A3810E22A15E331C3A1C00F027F8F8BDFFEFFFFF38B50C1C0E25495F00F068F8A389421C03D1054A1340A38104E0802252011343A381606538BDC046FFEFFFFF73
:4042400008B50E23C95E00F01DF808BD0023C25C0133002AFBD1581E7047000038B5084C051C00202060081C111C1A1CFCF7F2FA431C03D12368002B00D02B6038BDC04620
:404280006429002038B5074C0023051C081C236000F056F8431C03D12368002B00D02B6038BDC0466429002038B5074C0023051C081C111C236000F04BF8431C03D12368B3
:4042C000002B00D02B6038BD6429002038B5074C0023051C081C236000F042F8431C03D12368002B00D02B6038BDC0466429002038B5084C051C00202060081C111C1A1CCC
:4043000000F036F8431C03D12368002B00D02B6038BDC0466429002038B5084C051C00202060081C111C1A1C00F02AF8431C03D12368002B00D02B6038BDC04664290020EC
:40434000024B5822012040421A60704764290020024B5822012040421A60704764290020024B582200201A607047C04664290020024B5822012040421A607047642900209A
:40438000024B5822012040421A6070476429002010B501F01DFA10BD10B501F021FA10BD10B500F0DBF810BD10B50749044609780220002907D1204601F042FA002802D197
:4043C000204608F0EBFC10BD9E020020F7B51F4E0024307815460F46002804D00824B76075802046FEBD002F00D1012401F0F0F90098002805D0172D03D301204002854229
:4044000001D90124EBE7002CE9D12946384600F023F80400E3D1706800F01CF80400DED1706800F015F80400D9D101F0EBF90400D5D1009806F06EF80400D0D106F080F87D
:404440000400CCD101203070C9E700008C0100200020704700207047F8B50D4607460026FEF74AFEFEF732FE00F02EFA040065D100F0B8FB040061D13449084600F08AFD8D
:404480000404240C5AD1A80705D0A807800F0421081A401985B2172D02D968002E3886B22B48301881B2384601F076F8040045D1284F03460246002825D127495E008E5B19
:4044C000294610318E4207D99000C01941800221521C4170D2B215E08E420BD10020787690001D49C0194680891FC95C891C4170012012E0052A06D1164806461436418334
:4045000002207071012014495E008E5B9100C9194E80114EB61FF65C4E705B1C521CDBB2D2B2062BC7D30B4800F06CF8002C05D100F084F807490120891E087000F0D6F909
:40454000002C01D0FF20F8BD0020F8BD71450000940C00009A010020863D010010B503480078012801D100F0A7FE10BD980100207047000010B5011F0878034A80001058D1
:4045800000F0AAFF10BD0000D014002010B5044604498000085800F00DFF002801D00470001D10BDD014002038B5044692B2C9B2684600F025FF024AA1000098505038BD2C
:4045C000D014002070B50B49064600204C6805466178002908D06188B14202D32078FFF7D5FF002804D1241D6D1CEDB2082DEFD370BD0000BC01002010B5002801D0FFF7CB
:40460000B9FF10BD70B50B4E0446002570606178002905D062882078121D0023FFF7C4FF6D1C241DEDB2082DF1D3024800F0A6FFB06070BDBC010020002070471CB50024AD
:4046400069460C70142001902346054A05480CF0ADF904480068401C00D1FF2420461CBDB9460000C80100203EB5124A0146FF2000230124126800290DD0012914D00429C0
:4046800008D104206946009308814B8110460CF088F980B23EBD6846009304814381694610460CF079F9F4E768460093048143816946EBE7C801002070B545890468416892
:4046C0000089030000F026F806240408081D2124002004F0F5FE1BE0022908D0C8B22A4621460AF04FFC2046FFF786FF10E002202A4621460AF046FC2946204600F018F80A
:4047000006E000200BF046FE02E020460CF0D4F9002070BD30B47446641E2578641CAB4200D21D46635D5B00E31830BC18470000014B0022DB681847CC01002070B5448927
:4047400005680089022803D0032809D0FF2070BD2246094C0023A46829460120A04708E0FFF716FE241DA2B200232946022005F0B4FD002070BD0000CC01002070470000C1
:40478000024800214160018041807047CC01002070B50C46002186B016460391012802D0022859D116E003A9012005F0EEFD01281BD1039D324621462846FEF70CFE0095C1
:4047C000287801900220694608814E816846FFF7B5FF41E0214D002B686809D0049004A9022005F0D2FD01281DD0022006B070BD002812D0298840182146FEF7ECFD28885A
:404800000024801980B228806988091D884206D12C801348FFF792FF03E00320E6E788421AD96C6018E004986860E278A378110219430B4A698000231060E356536003231C
:4048400013815181A1788170E178C1706178417021780170042028800020C7E7CC010020F01400203EB515460C46022803D004280CD000203EBD00910190022069460881C3
:4048800007484A8100680CF08CF807E00AF07AFB044B0022DB6829462046984701203EBDC8010020CC010020014AD16090607047CC010020034801688068081A0A214843C2
:4048C00000097047FC14002010B5FEF705FC542204490548FEF77FFD03490120C870002010BD0000963D01004C17002010B5FEF7E7FB10BD70B5134C2368002B08D0207B8D
:404900001149C20705D04008400020738868A08070BD88680B4AA18880B29268814203D90A4D691A091802E0814202D2411A5118A160A080A0689842EAD300F015F80CF0FD
:404940004DF870BDFC140020C0102E40FFFF000010B508461946FFF7A7FF10BD704710B5FFF780FF10BD000003480021016041608160C16070470000FC14002010B50200A2
:404980000DD0FFF7F1FF074C0321207B0843207310010A21FEF778FC2060002010BDFF2010BD0000FC14002000B504480A21806848430209FFF7D8FF104600BDFC1400205C
:4049C0000248007B8007C00F70470000FC14002070B558490868002802DA574B01221A70022290430860554800695249C00B4031096A08426CD0012000F078FA4F48504944
:404A00007C30FEF741FB4B480E216C30FEF73CFB4A4820218430FEF737FB484814219C30FEF732FB4548FF21C131A430FEF72CFB4248FF212F31B030FEF726FB3F4841490E
:404A4000BC30FEF721FB3D483F49AC30FEF71CFB3D493A48491CB430FEF716FB37483B49B830FEF711FB35483949CC30FEF70CFB324838490830FEF707FB30483649A83011
:404A8000FEF702FB2D4835498830FEF7FDFA2B4833498C30FEF7F8FA28481921C9029030FEF7F2FA2F4D287E697E0C020443A87FE97F2D4A090201432C48914201D1072CC6
:404AC00008D035229201914208D1042C05D005E0FF2070BD0146042400E0014617486C30FEF7D2FA154821467430FEF7CDFAA87EE97E0902014301204003814201D000299F
:404B000000D11B490D487830FEF7BEFA2A7F687F010218481143814204D01748814201D0052901D113490A3904488030FEF7ACFA002070BD00F02E40DC01002000002E4079
:404B400055650000320300002F3F00003102000010520000EC160000FA12000031D000003AE30000C0F0FF0F580B0000580D0000022000000F0F00000505000070B50646D6
:404B8000581C80B245086D00002408E0304600F07FF81055000A1119A41C4870A4B2AC42F4D3D80705D0D0182038D15CC47FD454C17770BD30B50A4C002100195B1E07E0CA
:404BC000541864782502545C2C430480891C89B29942F5DB994201D1515C018030BD000000102E4010B5FF2000F080F90F49FF2048700E481021801D41800121417001702D
:404C00000A490020C91C4870FFF7E2FE04000AD100F0CCF807210648FEF728FA044807211830FEF723FA204610BD0000DC010020CC112E4030B504465B1C1804450C0023EF
:404C400008E0204600F024F8241D59005B1CA4B250529BB2AB42F4D330BD000070B500210A4D5B1E0AE0541864782602545C344346193480001D891C80B289B29942F2DB62
:404C8000994202D1515C4019018070BD00102E40014940180088704700102E40014A80180180704700102E4010B50B490020487000F07CF8002000F03FF9002000F02CF94A
:404CC00007210648FEF7D2F9044807211830FEF7CDF9002010BD0000DF010020CC112E4010B50B46062812D006DC01280CD0032801D1FFF7D9FF10BD0A28FCD00B28FAD12E
:404D000005480078107010BDFFF76CFF10BD1146184600F02DF910BDE2010020F8B5204DAC6A0127A0071F4E002816DA307806280ED1286A384328621B480069F9030843B5
:404D400081B219481030FEF79FF9042000F0CEF8134802212830FEF789F9E00711D0062000F0C4F80F49FF20C91E48707078002802D1686B38436863094801212830FEF73F
:404D800075F9E0050BD53078042802D1052000F0ADF80348FF2101312830FEF767F9F8BD40F02E40DF01002000002E4010B503212348FEF769F90120FEF774F92048303856
:404DC000406A204C80076178800F890001431C480C38FEF759F96078002808D0401E022181401820FEF7B0FAC000083800E0B82081B21548FEF748F91348032109021438AD
:404E0000FEF742F910481149B830FEF73DF9452189010F48FEF738F90D480321001FFEF733F90C490C48FEF72FF90B480B496038FEF72AF9084801218838FEF725F910BD28
:404E400070F02E40E2010020D8102E4090890000041E2E40FF0F000058122E40209000000849087806280BD148780749002803D1486B400840004863C86A01221043C8622D
:404E800070470000DF01002040F02E400148007870470000DF01002000B50300FFF73AFC080D050D0B070507090D012000BD032000BD042000BD022000BDFF2000BD00008C
:404EC000074A9168D26889B2064B92B2994204D105498A4201D1012100E000210170704780002E4033D000003FE3000010B50446FEF7ECF8072C01D9FF2C01D102480470B4
:404F0000FEF7DEF810BD0000DF0100200149487070470000DC01002010B5064A012805D01921C9021046FEF7AFF810BD1D21C902F8E7000090002E4010B50A4A141D0128F3
:404F400008D009491046FEF79FF808492046FEF79BF810BD04491046891CFEF795F80349491DF3E788002E4031D000003AE300000078074AFF2803D04C2804D9553803E02B
:404F80001078087070474F380870107070470000DE01002010B50F4A002313600E4A13600E4B18600E4801600E49012008600E490860000290600E490C4808600D491430C0
:404FC0000860FF381538506000F0BCF800F0CAF9002010BD00020020E8010020140200201802002004020020F40100200C160020F80100200C020020014610B5002000291D
:4050000010D0094B1A689C685118A14209D25868196080188A0704D08A07920F891A091D196010BD002010BDE8010020F8B50024164E671E321F3D463168136806E0142264
:40504000624310328A58521C1BD0641C9C42F6D36A1C14D02C461422544322460C3288500C214843FFF7C8FF3168002808510AD031680020103408517068401C706028468F
:40508000F8BD2546E4E73846F8BD0000F8010020F3B50026F64381B000281BDB1E490968884217D80299002914D01B4F142204463F1D54432546396810354859401C09D026
:4050C000FEF704F838682F1F4159C359994203DBFDF7F6FF3046FEBD214608310091465801590C20704308180C220299FEF773F90948761C001D0068C159B14200D100268A
:405100000549009A091D865008684159491C4151FDF7D6FF0020FEBDF4010020002803DB07490968884202D90020C043704704491422091D09685043103008587047000087
:40514000F4010020F0B500200D4A451E0346171F50600FE014260146714314680E1DA3510C461668083433511668083435511468401C635039688842ECD30020F0BD00005B
:40518000F8010020F3B50026F64381B0002841DB2349096888423DD8029900293AD0204F142204463F1D54432546396810354859401C2FD0FDF78AFF3868415900292BD0C6
:4051C000211D009146580C21005971430F46C1190C220298FEF7FFF811480021001D0068761C00590C34C0190160416081600C48001D00680159B14200D100260849009A37
:40520000091D865008684159491E4151FDF758FF0020FEBD3046FEBDFDF752FFFAE70000F4010020FEB504460D4600201E49089E0860471E009001900290002C11D0486823
:4052400085420ED2002A0CD0002E0AD0642E08D808460C3001681C2068430C18207A002801D03846FEBD0120226020721846FFF7DDFE6060401C13D06681A6810A482761F2
:405280000C3067610179A94200D205710021684601810A462846029B00F040F82846FEBD00202072DDE700000002002038B50124009400F039F838BDFEB50027164EFF436C
:4052C0003D4600240EE01C20316860430818017A002906D04068FFF721FF002801D0254603E0641C3079A042EDDA681C12D01C2130684D434419FDF7E9FE69466068FFF7C0
:4053000041FF0546FDF7DCFE002DD9D1216868468847D5E7FEBD00000C02002038B50024009400F001F838BD1FB500220C49541E0A60002811DB496888420ED808491C22E4
:405340000C31096850430818406801A9FFF7A0FE401C02D0002004B010BD2046FBE7000000020020F0B50021114A4D1E174611710C3F0B46BD6016E008461C2460431668E4
:40538000041D355114680646235014680836A3551468361DA353044616680A34335318301468491C255078688142E5D30020F0BD0C02002038B500210091002811DB0F4909
:4053C000097888420DDA0D4D04010C3529680859002807D0201D0818694600F05FF9002801D0002038BDFDF771FE28680F34015D491E0155FDF764FE009838BD1C02002016
:40540000F7B582B00025ED43029800240E460560002A49D0002E47D02D48D21C02402D48174601780C30006805E022018258002A0FD0641CE4B28C42F7D3691C3ED02C014D
:40544000211D40180191314600F016F900282BD101E02546F1E71F480C30016820460C300F521C480C30016820460E300E5419480C30016820460F300E543846704300F0FA
:40548000ADF814490C310968002808510CD00024009011E00F480C30016801980818009900F017F9002802D0012005B0F0BD0098C019641CE4B20090B442EBD302980549BC
:4054C00005600C310879401C08710020EDE70000FCFF00001C020020F8B50D4600216A468C461180002839DB23490978884235DA214B04010C3319680A59002A2ED020462F
:405500000C300B5A801C0E5C184670438018954224D3854222D2002006E007465F43BF18AF4206D0401CC0B2B042F6D36046002814D0114E271DC8190C366A46294600F0EF
:40554000F2F800280AD168460088012808D030682946C01900F0BDF8002803D00120F8BD0020F8BDFDF7B2FD30680F34015D491C0155FDF7A5FDF3E71C020020034600202E
:40558000002B06D0034A5168906852884018511A198070471C02002070B5002400F0DCF80D4E002132460C3271600EE0200113680546195013680C355953AD1C13680F3088
:4055C00059551368641C1954E4B230788442EDD31171002070BD00001C020020014610B5002000290CD0C91C064B8A08596892005C888A18A24202D898685A60401810BD55
:40560000002010BD1C020020F8B5002827DB19490978884223DA174C05010C342168485900281CD028460C30085A009028460E300E5C401C0E5420682F1DC01900F064F86E
:4056400000280CD12068002445590EE0094829460C300068C01900F03CF8002801D00120F8BD00982D18641CE4B2B442EED30020F8BD00001C02002030B50D4604000BD0E9
:40568000A800FFF7ABFF6060002805D000202570C0436080002030BD012030BD70B50D46040005D0002D03D00220205E002801DA012070BDFDF70AFD0221615E60688900C2
:4056C000405828606088401E6080FDF7F9FC002070BD70B50D46040007D0002D05D002212078615E401E814201DB012070BDFDF7EDFC6088401C00B26080616880000D50BB
:40570000FDF7DEFC002070BD10B5040009D0227800216068FDF768FE0020C0436080002010BD012010BDF0B500231D46002802D00224045F0AE00120F0BD46689F00F659EF
:405740008E4201D1012503E05B1CDBB29C42F4DA15700020F0BD0000054B11221A70054A1180064A0449116005490860704700001C0200201E0200203C16002028020020DA
:40578000240200200148007870470000300200207CB505460024FEF7FBFDA8796946087000A8062229460130FDF715FE0021684604F0E4F80C2804D0072804D01F2804D0C8
:4057C00004E0022402E0042400E0272420467CBD10B500F0CFF8FFF759FBFFF75DFB10BD70B504460025FEF7D3FD002C06D0A079012803D8214602F00CFA00E0012528469F
:4058000070BD000010B503240BF0D0FD002810D10BF074FD00280CD104F006FE002808D100F06AFA002804D104F002FB002800D10024024900200870204610BD300200204D
:4058400070B50025044600280ED0A07901280BD8FEF79EFDA0790028204602D002F0DEFD03E002F093FD00E00125284670BD38B504460120002C20D0617801291DD80029F8
:405880000BD0FF25E535FEF783FD2846FFF700FAC0B22070072803D00EE0FF25CD35F2E70020694608706846FFF70AFB69460878012801D108202070002038BD70B50446B5
:4058C0000120002C1FD06178012902D92278092A19D8002906D0FF25E53520780726092803D003E0FF25CD35F7E72670FEF750FD2078082808D00020FFF71EFB2178284635
:40590000FFF7CCF9002070BD0120FFF715FB2670F4E7000070B50D46040001D0002000E00548002802D0012101F0AAFF2946204602F084FA70BD0000C017002038B50546D6
:4059400000200446009022466946284600F06CFE0098002801D00BF00BFDA878214602F0B1F8A878214602F0A0F8641CE4B2052CE9D338BD38B5FFF789FA042819D00528E7
:4059800017D006281AD0032842D007280AD100206946087002460120FFF7A2F9FFF776FA0128FBD138BDFDF70BFCFFF76FFA0128F8D0FFF76BFA0128F5D138BD02F0EAF8B2
:4059C00005E0FDF7FDFBFFF761FA012803D0FFF75DFA0128F5D1A12424012046FFF758F901220E4983079B0F0A70022BE5D149880029E2D0104301462046FFF74FF920465B
:405A0000FFF746F9410849002046FFF747F938BD02F0C4F80120FFF769FA38BD36020020F8B50646002402F00BFE0546304602F01FFE00210346012632468A40174610462B
:405A40002F401840002F03D0002801D1224394B2491CC9B20529EFD32046F8BD1CB50020694648706846FFF702FF01AA69460A20FFF736F96946042008561CBD10B50C4606
:405A800001F076F9002809D00179002906D0C1788078224602F080FA002010BD022010BD01480078704700008C1700204030C07E002800D00120704700B500F001F800BD17
:405AC00088214843064940186030417F491CC9B24177052901D300214177C8B270470000A017002013B501F043F904000BD001F09AFC002807D0214601AA0A310620FFF73D
:405B0000EFF800201CBD02201CBD000010B50C4601F02EF900280AD001F085FC002806D0224604490A20FFF7DBF8002010BD022010BD000075170020F3B581B0074601464C
:405B40000026029802F074FD0446002F01D0002500E0154D002D21D0284601F03FF9032C04D13946029802F08DFD06463846029901F09BFF032C06D0002C10D00121384662
:405B800001F01AFA03E03146384602F02FFF284601F05CFE0221284601F072FEFEBD3846029901F082FFFEBDC017002070B50446002503F01DFB002801D00C2070BD2078BC
:405BC000611C02F0E3FAFF2802D01F25284670BD02F030FBFF2804D02178621C01F0DAFEF4E70725F2E710B503F002FB002801D00C2010BD02F0A2FA002010BD70B50D460F
:405C0000044610210BF0F4FA1021601806460BF0EFFA334610221946204603F015FB102130460BF0E5FA02202870204604F058F870BD70B504464078217802028006850FC4
:405C4000E0781143A67809050002090D0643084601F08EF8002812D0022D10D0032D0ED0002E08D00179092909D0002907D0214600F0A1F870BD0089002103F066FF2046EF
:405C80000BF076FB70BD0020704770B50446002503F0AEFA002801D00C2070BD2078611C02F074FAFF2802D002F0B6F900E01F25284670BD10B504F0BBF800F0F6F80020BB
:405CC00010BD10B5044600786178E2780843A17811430843217908436179084305D003F079FA002803D00C2010BD122010BD204602F094FB002010BD10B5044803F0E2FA2E
:405D000002F094F900F004F8002010BD5C170020F8B5114D00266E706E736E716E76AE76EE766E75AE70EE70AE712F46EE730120B03778723F2078719B20B87100F00AFAD7
:405D40000024204601F036FB641C2406240EF8D03E72FE71AE73F8BDA017002070B505460E46084602F06CFC0446304602F080FC0121A9400A46224001400A4301D0012030
:405D800070BD002070BD10B50446084602F070FC0121A140014201D0012010BD002010BD10B5FFF773F8032804D101F0F7FE0120FFF79CF810BD70B5044600790D460928CC
:405DC0001CD000281AD020464030817E491C8176204601F03BFDA078FFF76EFE064602462946204600F00CF8002806D1A0783146FFF790FD28460BF0BBFA70BD0846FAE783
:405E0000F7B5054648780C468006870FC8788978000282B0014368468180284601F00EFB060007D021462846049A00F091FB304605B0F0BD384600F039FC0746034601AAE5
:405E40002946204600F0CAFA68468088231DC0B20090A878FF22049901F0AAFF684680883B46C2B2A878049902F054FBDFE770B5002500242846FFF7D3FD060010D03046BC
:405E8000E040C007C00F07D02146284601F001FE21462846FFF750FE641CE4B2052CEED36D1C2D062D0EE4D070BD10B502F0BEF8FFF72EFF0BF0C4FA002010BDF8B5002490
:405EC00000F081F80123012800D10124104F00203E4620360425082203E0002801D0002100E031460979002907D001290BD002290BD0114681402143CCB2401C0006000EFF
:405F0000EBD07C70F8BD1C43F7E72C43F5E70000A017002010B5FFF7D1FF10BD10B50B4681791943817103D08078114602F0B6FA10BD10B582798A43827102D1807802F022
:405F4000C5FA10BD70B5FF25D53502242846FEF79FFE0C4A9178002901D0022906D1137852789A18282A01D9032402E0032900D101244105490DE00201432846FEF78EFEB2
:405F800070BD00003202002010B500F022F8002807D0012805D0032801D0042801D0002010BD012010BD014610B50020C90701D000F009F810BD014610B50020C90701D068
:405FC00000F001F810BD10B52020FEF761FE000A10BD10B51820FEF75BFE410501D5042010BD4007800F10BD38B5044640060CD5684601F0D9FD0220FFF78CFF072002F031
:4060000031F96846007801F03FF9200613D5FFF7E0FF01280FD1684601F0C6FD6846007800F09AFA072002F01DF9012001F076FC0220FFF76FFF38BD10B5034A01781170B5
:4060400002F01FF9002010BD3202002010B50446FFF7B9FF002801D00C2010BDA27B01211848002A827801D00A4301E05208520082706279012A0FD0C17849084900C170DD
:40608000207901280CD06188208802F01DFF2080207904280BD00DE0C2780A43C270EFE7E01D02F0A3F90848808C208002E0E01D02F09CF9054920798870204602F0F0F8DB
:4060C000002010BDA01700204C1700203202002038B50478FFF777FF844201D10C2038BD002C18D0072069460870FFF74DFF012807D10121684600F08DF8012801D009206A
:4061000038BD6846007802F0ADF8FFF71BFF02F0F7F8012010E0FFF737FF012806D1684601F042FD6846007800F04AFA072002F099F802F0D9F80220FFF7ECFE002038BDC3
:4061400010B5034A0178517002F080F9002010BD3202002038B568460BF0A0F8002801D01F2038BD01210098C90201804180002505714571857107214173857302F090F870
:40618000009C202200212046FDF72EF925702A460021601CFDF728F9204602F072F8204602F054F900980BF0E3F8042200210248FDF71AF9002038BD320200200346084839
:4061C00000B5834209D8184600F0D2FD002804D00089984201D1012000BD002000BD0000FF0E0000074A9179491C8906890E917138220A4092014907090E114308430249BE
:4062000008407047A0170020FF0E0000C006C00E70470000F8B507460E4600240D4803E0002C01D0002500E005462979002905D0641C2406240EF3D00020F8BD204601F0CE
:40624000B9F82E712046FFF7CDFF28813C700120F8BD0000C017002010B503F029F80222002100F003F801F089FE10BD10B5094B40074907000F090F185A595A401850434F
:40628000C0086421FDF700F8002800D1012080B210BD0000EA3D0100F7B53D20405C88B016460C46002829D030786946087200252046FFF7FBFB012800D00125204603A93F
:4062C00038300191009023460327A17E34332A46206A03F011F802A8089900900B46019120463A4603A9243002F090FF02466846007A3070204601F049F810460BB0F0BD7A
:40630000FFB587B00C4605461078694608723D20005D1746002826D000262046FFF7C6FB012800D00126204603A93830019100902346A17E34333246206A02F0DDFF02A887
:406340000090291D019120462B1D03A924300A9A02F05CFF02006846007A388002D1204601F014F810460BB0F0BDF7B53C20405C88B015460C4600280CD0287869460872EA
:40638000002806D000262046FFF790FB012803D003E01F200BB0F0BD0126204603A938300191009023460327E17E34333246E06902F0A2FF02A8089900900B4601912046B8
:4063C0003A4603A9243002F053FF02466846007A2870204600F0E4FF1046DBE7FFB505463C20405C87B016460C46002810D0084601F024F801280BD0308869460883002823
:4064000009D000272046FFF751FB012805D005E000200BB0F0BD0220FBE70127204602A93830019100902346E17E34333A46E06902F062FF06A80090291D019120462B1D73
:4064400002A924300A9A02F013FF02466846008B30806846008BA870000AE870204600F09FFF1046D5E770B50D460446FFF71EFB01280AD0E87AA97A00020143A07801F0E3
:406480004DFC012808D0002070BD00222421204602F064FC242070BD28214C200155204600F09AFB282070BD002801D0002000E003484030C07F012800D000207047000087
:4064C000C01700200146002049070ED50021084B03E0002901D0002200E01A461279022A04D0491C0906090EF3D0704701207047C01700200146002049070ED50021084BEB
:4065000003E0002901D0002200E01A461279022A04D0491C0906090EF3D0704701207047C017002010B5044680346068002803D00AF032FF0020606010BD40304170704787
:406540004030817070474030017070470171704792001018C166704770B53C2501F0F8F8040004D020460021433001F091FB2946204600F0C0FB002C02D0A07801F07AF8FB
:4065800070BD000010B5002801D0002000E00348002802D0008903F01FFB10BDC017002010B5002801D0002000E00448002804D00179072901D100F041F810BDC0170020E2
:4065C00010B501F0C5F8002802D0807801F052F810BD00207047000070B50546008A00281ED010491122897A1140C90618D5294640314A8A098A521C4A4392B2D10800D17B
:406600000121540801E0621A94B2A042FBD9FFF7B9F8012804D1298AA878224601F05CFC70BD00004C17002000230B60052A04D292001018C26E0A60C366704738B50446AC
:4066400000200090A079002814D14020015D052901D00E290ED168460AF030FE002809D12046009902F062FB03481021C28A2046FFF754FC38BD00004C17002010B50B4649
:4066800004460146184602F031F8002802D020460AF078FE10BD13B5044601AA11460620FEF71EFB6846818861811CBD002800D10220704770470000F8B504462346401D33
:4066C000543300909A1EA078911E01F07CFA25464035A88A298A8000FCF7D6FD401E81B2688A884203D96982A07801F062FF20460021433001F0CCFA8020FEF7C9FAE881A2
:4067000002F0D6FDE989891C8AB26179FFF7AEFD01F034FC02F0CCFD2A8A6179FFF7A6FD074601F01DFC688A00280BD0FF26F1363046FEF7ADFA0321090201433046FEF73B
:40674000ADFA02E0002001F022FFFF206130FEF79FFA6E8A002E0BD070431049FCF7F4FD0004000C01D0401C80B20D49488002E00B4800214180288A704381B2A07801F0EA
:4067800073FE2837B9B2204602F0A2FBE98AA07801F0C2FDA07801F0ABF9F8BD71020000360200207FB504468034616805460E46183108226846FCF70EFE31462031082295
:4067C00002A8FCF708FE102168460AF011FD6068102108300AF00CFD60682B46083024331022694602F030FD7FBD10B504460821FFF79FFB10212046FFF79BFB2079052826
:406800001FD006281DD008281AD12189002003F05BF9072020712046FFF748F9014620464030012913D00E21017000210176204600F02CFF2046FFF775FE2046FFF7CCFEF5
:4068400010BD20890122002103F022F9E1E70521EAE70000FFB581B01F4604460821FFF768FB10212046FFF764FB2079082803D0092804D0042203E00422012501E009228D
:406880000025204600F0C6FD264600204036307022712046FFF746FE0398002D02D0012808D00BE001280AD120890022029903F0EFF804E02189029803F006F90127002099
:4068C0003076012F04D0204600F0E0FE05B0F0BD02983073204602F06DFA054605480121C28A2046FFF71AFB002DEFD109202071ECE700004C17002070B50C460546FFF730
:40690000D5F8012809D108212846FFF712FB0023012221462846FFF79DFF70BD10B5044600F078FD2046FFF7FDFD00214034217010BD70B505461A24FFF7B8F8012809D1FF
:4069400008212846FFF7F5FA0023012221462846FFF780FF70BD0000F8B50446002000900E4668460AF0AAFC002801D00D20F8BD8420005908212030009D00F0F4F9204664
:406980000421383000F0EFF9002E02D1204600F07FFD2946204602F059F90E480821C28A2046FFF7BBFA204600F0D7FE25464035002808D0204600F023F8002801D009200C
:4069C00028700020F8BD08202870204600F03EFFF7E700004C170020014610B540310A460978082906D0092907D00A2901D100F091F810BD0B20107010BD00F001F810BD9F
:406A000070B50446007925464035052805D0062803D008280FD00C2070BD03220621204602F09CF90D480821C28A2046FFF776FA1120287010E006202873204602F0BAF9CF
:406A40000646AA8A0A20424301212046FFF766FA002E01D109202071002070BD4C17002038B504460020009068460AF027FC002801D00D2038BD2046009D00F08BF9082013
:406A80002071204600F004FD2946204602F010F900213D2001550F2040210855204600F0D5FE002038BD00B5024600F0B3FC10214032117000BD10B50446FEF7F7FF01287F
:406AC00009D04020005D112805D100231A4606212046FFF7BFFE10BD10B5FFF786FE10BD38B504460021684600910AF0E7FB00280CD12046009902F052F905480821C28ADF
:406B00002046FFF70BFA0D204034207038BD00004C17002038B504460021684600910AF0CDFB002801D00D2038BD2046009902F02BF905480821C28A2046FFF7EFF90C2090
:406B400040342070002038BD4C17002000787047F8B50025002801D0002400E01A4C002C28D0204600F05FFC002823D0207903281CD005281CD026464036B18AA07801F036
:406B800081FCB078012815D10021204601F0CBFD274680373868002802D00AF0FDFB3D600020B0702079072805D007E0042000E006202071F8BD2046FFF70EFD0221204670
:406BC00000F05EFEF8BD0000C017002010B54C22115400F046F810BD10B50446FF21FFF7A8F909202071A07801F07CFC10BD000038B5FF216A461180002801D0002400E0F1
:406C0000064C002C08D011460620FEF769F8684601882046FFF73FFD38BD0000C017002010B504468079002809D022214C200155FF212046FFF77DF9204600F012F810BD43
:406C400010B5037902464032002B03D01173092B02D003E0002100E02221117300F001F810BDFEB504460089002701902781207926464036002817D0012815D002280AD1AD
:406C800012E002AA6946204601F01EFD002807D100980AF077FB204601F03EFD0028F0D02046FEF74BFEB776254680352868002802D00AF071FB2F606868002802D00AF063
:406CC0006BFB6F60317B002902D0019800F044F8A078002100F020FF2046FFF7BDFAA07801F006F8A07800F0C5FC0B20FFF712F900F004FCFEBD70B50E46054602F0D4FA6D
:406D0000044606702846FEF7D1FE014601204140204661700C3000F0A4FF002D10D02889608028464030C1782171002E10D169796171018AE180418A2181808A608107E03D
:406D40001820FDF7A5FFC005C00F207100206080204602F062FE70BD0A4610B50146002002F052FF10BD10B50AF01EF810BD000000B50146FFF74AFA002801D0002000E0DC
:406D80000348002802D002898A4200D0002000BDC017002038B5044680346068002806D168460AF09BFA002801D100986060606838BD000010B5014600F040FB0128887835
:406DC00002D0FEF77DFE10BD88214843024940186030007F10BD0000A017002070B5054604464035A87F012811D1A1788820084A484380186030067F3046FEF7AFFF00280D
:406E000005D10220A877A078314601F025F870BDA017002010B50E4CE079002816D0FFF726F80C48827FC17F808B00F06FFB01280CD10020E07100F0C0FE0446AC20FDF7D7
:406E400027FF010B02D0204600F00EFA10BD000050180020A017002070477047490510B5490F0B00FDF756FC060704080C0C0F073E21FFF7ABFE10BD0821FFF7E1FE10BD7D
:406E8000FFF7EFFE10BDFFF7CBFE10BDF8B507460025002D01D0002600E0204E00F068FE3046403044890021418100F06BFE304600F0B9FA01282BD1A00702D52846FFF7A0
:406EC00047FEE00602D52846FFF792FEA00601D5FEF7CDFF600601D500F0CCFA200602D5284600F01DF8600702D5284600F0FEF9380402D52846FFF753FB780402D52846E4
:406F0000FFF740FBE00703D021463046FFF7A6FF6D1C2D062D0EBCD0F8BD0000C0170020F8B5002801D0002400E0204C002C39D025464035A878012834D1E98AA07801F0CA
:406F4000EBF92046FEF7B2FD01282BD002F0B0F92A8A6179FFF78AF9064601F001F82836B1B2204601F0B4FFE98AA07801F0D4F9FF206130FDF78CFE6E8A0D4F0146002E1C
:406F800011D0304648430B49FCF7DEF90004000C01D0401C80B27880288A704381B2A07801F062FAF8BD0020F5E70000C0170020360200207102000070B50D46124A010025
:406FC00001D0002401E014462034002C1BD0204600F034FA01280AD18820484380186030007FFEF7BBFE002801D101F06DFE20464030817E491B8176204600F027FC20893E
:40700000294602F0A2FD70BDA017002070B503460088FFF7ADFE040013D000F004FA00280FD02079092819D02546997840352973204601F0BFFE0646A878012803D0AA8AE9
:4070400002E0022070BDEA880A20424301212046FEF764FF002E01D109202071002070BD0EB5002217216B460292198100905A810120029B00990AF001FA0EBDF8B5184E46
:407080000024F079002820D10025AC20FDF700FE000B21E0204600F00BFEFDF7F9FD07462A46214600F032FA01280FD00D48012187838577C477F171002D01D0002000E092
:4070C0002030002801D000F0C1FBF8BDAC20FDF7DFFD000B641CE4B20028DBD1F8BD000050180020A017002010B50088FFF740FE002809D0014640310C460978082905D02E
:407100000B2903D00C2010BD022010BDFFF778FC002801D009202070002010BD70B503460088FFF725FE040008D0254640352878082805D00B2803D00C2070BD022070BD39
:407140008420005910220830991CFCF744F92046FFF728FB2878082804D02046FFF7DAFC002801D00A202870204600F06FFB002070BD000010B50C46002121700088FFF75F
:40718000F7FD03000BD000F04EF9002807D009481121807A0840C00603D4112010BD022010BD022020701A8A1889002102F048FD002010BD4C170020F8B50F460021009105
:4071C0000088FFF7D5FD040012D000F02CF900280ED0E079410641D4617E02264A07002A08DB8907402500291ADA2843E07135E00220F8BD02F058F800210170218941802B
:40720000A1898180217E4170E189C1803E7005460178134802F07AFA284602F0B5FC1DE0204600F011F9012806D068460AF046F8002803D00720F8BD2A20F8BDE0790099DA
