:400000000040002011000000710700007107000080B500AF00F0DAFB80B584B000AF021CFB1D1A70204A3B1C0B3312781A701F4A3B1C0A3312781A700423013BFB6018E004
:400040001B4B1868391C0B31FA68131C5B009B18C3185B780B70164B1868391C0A31FA68131C5B009B18C3189B780B70FB68013BFB60FB68002B0ADB0D4B1968FA68131CF1
:400080005B009B185B5CFA1D12789A42D8D9094B3A1C0B3212781A60074B3A1C0A3212781A60BD4604B080BDCCF1FF0FCDF1FF0FD00000201CFF0B4020FF0B4080B500AF4B
:4000C000234B12221A603020FFF7A6FF214B224A1278D2B21A60052002F0E0FC1F4B35221A6002F07DFCFA235B00181C02F0B2FC012002F085FC1A4B1A4A1A601A4B8022D6
:40010000D2051A60194B1A4A1A601A4B194A126808218A431A60FA23DB00181C02F01AFC154B181C02F0BAFC144B882292011A60134B144A1A60144B802212061A60134BCD
:400140008022D2021A60124B40221A60BD4680BD3000104028FF0B40FDF1FF0F2CFF0B4004010B40060000800C020B407C002E406A2D00006CF02E40DC0500000003014013
:400180000000014040FF008008010B4000010B400401014080B582B000AF72B6374B00221A60FB1D00221A7023E0FB1D1A78131C5B009B185B00324A9B183B603B681A78F5
:4001C000597809020A43997809040A43DB781B0613431A1C3B6819795B791B020B439BB2101C191C00F076FBFB1D1A78FB1D01321A70FB1D1B78012BD7D9224BEE2212064D
:400200001A60214B992212041A60204BD82212041A601F4B20221A601E4BC42292021A601D4B20221A601D4B992212041A601C4B992212041A601B4B1A4A1278D2B2022191
:400240000A43D2B21A70184B174A1278D2B23C218A43D2B214210A43D2B21A70114B114A1278D2B216210A43D2B21A70FFF726FF00F040FBBD4602B080BDC0466CF02E40B4
:400280000036010000000240000102400800044000010440080104401801044000500F4010500F4000700F4001700F4010B5064C2378002B07D1054B002B02D0044800E04C
:4002C00000BF0123237010BD18040020000000003C34010008B5084B002B03D00748084900E000BF07480368002B03D0064B002B00D0984708BDC046000000003C340100A2
:400300001C040020C80000200000000090B589B000AF786039607B68272B00D1B3E004D8012B0ED0202B14D009E12B2B00D176E01222FF32934200D1B8E0282B00D1B1E08A
:40034000FDE0804B181C02F011FE002000F092FBF5E03B1C08333A6813CA13C303CA03C33B1C0833DB6801331B78FF2B56D13B1C0833DB6802331B78312B4FD13B1C08331C
:40038000DB6803331B78012B48D13B1C0833DB6804331B78342B41D13B1C0833DB6805331B78122B3AD1684B181C02F0DFFD3B1C1F3300221A7022E03B1C1F331A783B1C56
:4003C000083359683B1C1F331B78CB1819785F4B99543B1C08335A683B1C1F331B780521CB1AD3181B785A4A101C191C02F042FD3B1C1F331A783B1C1F3301321A703B1C73
:400400001F331B78052BD7D9524B181C02F0AEFD514B01221A7000F077FB90E08FE04F4B1B78032B04D14E4B181C02F09FFD29E04A4B1B78052B25D14A4B181C02F096FDCF
:40044000454B1B78012B1DD13C1C1C343F4B181C00F06AFB031C23803B1C1C331B88002B04D1414B181C02F081FD07E03B1C1C331B883E4A101C191C02F0FCFC364B0022A3
:400480001A705CE05BE03A4B1A785B781B021A4300231204120C1B0C1B041343181C00F021FC4CE0002000F0E5FA48E0294B181C02F05CFD2F4B181C02F058FD3B1C1F33CF
:4004C00000221A7031E03B1C1F331A782A49131C5B009B185B00CB189A88284B9A421DD13B1C1F331A782449131C5B009B185B00595A3B1C1F331A781F48131C5B009B18E5
:400500005B00C3185B88994204D21D4B181C02F02DFD03E01B4B181C02F028FD3B1C1F331A783B1C1F3301321A703B1C1F331B78022BC8D9074B181C02F018FDC046BD4664
:4005400009B090BD803401009034010060290020A0340100A8340100340400208E290020AC340100C0340100D0340100DC340100A4290020F43401004C01002004180000E6
:400580000C3501003435010080B586B002AF3B1D384A116819609188998092799A7162B602F0D0F8344B181C00F016FA3B1D022007211A1C02F06EF8304B181C00F07CFC93
:4005C00003F0D8FB02F062F9021C3B1C0F331A703B1C0F331B78002B4BD03B1C0F331B78652B14D0722B02D0642B29D0E8E7244B1A785B781B021A4300231204120C1B0C03
:400600001B041343181C002100F0B2FD31E03B1C0E3301221A701A4B3A1C0E3200921A785B781B021A4300231204120C1B0C1B041343181C00210022022300F0D3FD18E048
:400640003B1C0E3300221A700D4B3A1C0E3200921A785B781B021A4300231204120C1B0C1B041343181C00210022022300F0BAFDC046A5E7643501000D030000BD060000A2
:40068000A429002080B586B000AFF860B9607A6000237B6109E0BB685A1CBA601B78181C02F086F87B6901337B617A697B689A42F1DB7B68181CBD4606B080BD80B584B03E
:4006C00000AF786039607B68B422FF3293420FD0B422FF32934202D8402B32D036E0DA225200934216D0DB225200934224D02DE03B1C08333A6803CA03C33B1C08335B68B9
:400700001B681B78DBB25BB2144A101C191C02F0B1FB20E03B1C08333A6803CA03C33B1C08335B681B681B78DBB25BB20C4A101C191C02F09FFB0EE00A4B181C02F016FC22
:4007400009E0094B181C02F011FC04E0074B181C02F00CFCC046BD4604B080BD6C3501009C350100CC350100E4350100F035010080B500AFFEE7C04680B584B000AF786036
:40078000104B1A687B68D3181A1C0F4BD21A8023DB009A4209DC0B4B1B68FB60094B1A687B68D218074B1A6007E002F017FB031C0C221A6001235B42FB60FB68181CBD46C8
:4007C00004B080BDCC000020C029002080B586B000AF224B7B61224B3B61204B7B6135E03B691B68FB603B695B68BB603B699B683B6000237B600CE0FB681A68BB681A6099
:40080000BB680433BB60FB680433FB607B6804337B607A683B689A42EED13B69DB683B6000237B6008E0BB6800221A60BB680433BB607B6804337B607A683B689A42F2D184
:400840003B6910333B617B69013B7B617B69002BC6D102F0C9FAFFF797FEFEE7010000006C3E010080B582B000AF154B144A126801218A431A6000237B600FE07B68032BCD
:4008800004D8104B7A689200D35800E00E4B0F4A796889008B507B6801337B607B682F2BECD9FFF777FC0A4B00221A60044B044A126801210A431A60BD4602B080BDC04645
:4008C00000001040000000007107000000000020C000002080B582B000AF786039607A683B68101C00211A1C02F0BCFABD4602B080BDC04680B500AF054B03221A60054BDE
:4009000003221A60044B00221A60BD4680BDC0463000304030003140000E3F4080B500AF1A4B00221A701A4B00221A70194B00221A70194B5A88194B1A80174B9A88174BD9
:400940005A80154B9A79154B1A73134BDA79134B1A71124B0622DA81104B28221A820F4B00225A820D4B64229A820C4B0022DA820A4B012252421A83094B1E221A8000F094
:4009800013F8084B00221A70BD4680BDB4290020A0290020B2290020D4000020702900208A2900206829002080B500AF084B181C00210A2202F056FA064B181C0021062213
:4009C00002F050FA01F062FE00F064FABD4680BDA82900209029002090B585B000AF78603B1C0E3301221A801B4B1B78002B04D1FFF794FF184B01221A707B68002B24D028
:400A0000164B7A681A603C1C0E341549154A80239B00081C111C1A1C03F0C2F9031C23803B1C0E331B88002B0FD10F4B01221A700E4B08221A703C1C0E340D4B181C1C21B0
:400A400016220EF011F9031C23803B1C0E331B88181CBD4605B090BD380400206C29002019150000400400208E2900208F2900200C37010090B585B000AF021CFB1D1A7081
:400A8000FB1D1B78002B09D11C4B1E221A811B4B30225A80194B30229A800EE0FB1D1B78012B0AD1154B96221A81144B802212015A80124BE122D2009A80114BFA1D127858
:400AC0001A703C1C0E340D4B181C0CF011FB031C23803B1C0E331B88002B07D1094B1B78DBB204221343DAB2064B1A703B1C0E331B88181CBD4605B090BDC046D400002079
:400B0000B2290020B429002080B500AF0CF01EFB044B1B78DBB208221343DAB2014B1A70BD4680BDB429002090B585B000AF7860284B1B78052B05D03B1C0E33832252009B
:400B40001A8040E07B68002B04D13B1C0E3301221A8038E03B1C0D3300221A7011E03B1C0D331B783A1C0D32127879688A5C1A49CB185A713B1C0D331A783B1C0D33013223
:400B80001A703B1C0D331B78052BE8D97B689A79114BDA723C1C0E340F4B181C0CF056FA031C23803B1C0E331B88002B0BD1094B04221A70094B1B88002B04D0074B1B888B
:400BC000181C09F04DFD3B1C0E331B88181CBD4605B090BD8E290020702900208A29002090B583B000AFBC1D0CF022FA031C2380094B1B88002B01D009F04CFDBB1D1B881D
:400C0000002B02D1054B05221A70BB1D1B88181CBD4603B090BDC0468A2900208E29002080B582B000AF78607B681B781A1C7B6801331B781B029BB213439BB2181CBD46CB
:400C400002B080BD90B585B000AF78603B1C0F3300221A707B689A8909239A4237D17B681A1D7B683C1C0F34101C00211A1C40230EF012F8031C23703B1C0F331B78002B9A
:400C80001DD17B685B68181CFFF7CAFF031C1A1C022313409BB2002B08D0104B1B68822251007A68081C111C984708E00B4B1B680622111CFF317A68081C111C9847084B00
:400CC0001B78DBB201229343DAB2054B1A703B1C0F331B78181CBD4605B090BD6C290020B429002090B585B000AF3B1D18802B4B1B78022B05D03B1C0C33832252001A8013
:400D000045E0FFF751FE264A3B1D111C1A1C0223081C111C1A1C02F09CF8224B00221A703B1C0F3300221A7014E03B1C0F331A78131C5B009B185B001B4A9B18181C00216A
:400D4000042202F08FF83B1C0F331A783B1C0F3301321A703B1C0F331B78022BE5D93C1C0C343B1D18680CF0B5FF031C23803B1C0C331B88002B0AD10C4B01221A700C4BC0
:400D80001B78DBB202221343DAB2094B1A703B1C0C331B88181CBD4605B090BD8E290020A4290020B32900204C0100208F290020B429002080B582B000AF78607B68DA8888
:400DC0000D4B9A4215D10D4B5B88002B08D17B689A880A4B5A807B689A78084B1A7008E0074B1B687A68063286214900081C111C9847BD4602B080BD052A000090290020A3
:400E00006C29002080B582B000AF78607B689A880B4B9A4211D10B4B9B88002B04D17B685A88084B9A8008E0074B1B687A68043286214900081C111C9847BD4602B080BD64
:400E400002290000902900206C29002080B582B000AF78600C4B5A887B689B899A420FD10A4B1B68832251007A68081C111C9847074B1B78DBB201229343DAB2044B1A701F
:400E8000BD4602B080BDC046902900206C290020B429002080B500AF054B181C0021062201F0E0FF034B00221A80BD4680BDC04698290020B414002080B582B000AF786027
:400EC000024B7A681A60BD4602B080BDB014002080B582B000AF78607B68DA880F4B9A4219D10F4B5B88002B15D10D4B5B88002B08D17B689A880A4B5A807B689A78084B17
:400F00001A7008E0074B1B687A68063286214900081C111C9847BD4602B080BD072A0000982900206C29002080B582B000AF78607B689A880B4B9A4211D10B4B9B88002BCC
:400F400004D17B685A88084B9A8008E0074B1B687A68043286214900081C111C9847BD4602B080BD02290000982900206C29002080B584B000AF7860164B1B68002B25D0CE
:400F8000154B5A887B689B899A421FD13B1C08337A6812881A803B1C083300229A707B681A1D3B1C08335A600A4B1B68B422111CFF313A1C0832081C111C9847074B1B78A0
:400FC000DBB201229343DAB2044B1A70BD4604B080BDC046B014002098290020B429002080B586B000AF7860304B1B68002B59D02F4B1B88002B55D02E4B5A882C4B1B8824
:401000009A4222D13B1C10337A6812881A803B1C103300229A707B681A1D3B1C10335A60234B00221A80244B1B78DBB201229343DAB2214B1A701D4B1B68DA2251003A1C3B
:401040001032081C111C98472CE01A4B9A88184B1B889A4226D13B1C08337A6812881A803B1C083300229A703B1C08330022DA707B681A1D3B1C08335A600D4B00221A80B4
:401080000D4B1B78DBB201229343DAB20A4B1A70064B1B68B622111CFF313A1C0832081C111C9847BD4606B080BDC046B0140020B414002098290020B429002080B584B07C
:4010C00000AF78601D4B1B68002B34D01C4B9A881C4B1B889A422ED11A4B1B88002B2AD03A1C08327B68111C1A1C0223081C111C1A1C01F0AEFE3B1C083300229A703B1C80
:4011000008330022DA703B1C083300225A600D4B00221A800C4B1B78DBB201229343DAB2094B1A70054B1B68DB2251003A1C0832081C111C9847BD4604B080BDB0140020F3
:4011400098290020B4140020B429002080B582B000AF78607B689A88044B1B889A4202D0024B00221A80BD4602B080BDB414002090B585B000AF3B1D18800A1CFB1C1A7053
:401180003B1C0E3301221A80134B1B78052B04D03B1C0E33832252001A80FB1C1B78002B13D10E4B5A883C1C0E343B1D1868111C0CF0C6FD031C23803B1C0E331B88002B42
:4011C00003D1064B5A88064B1A803B1C0E331B88181CBD4605B090BD8F29002098290020B414002090B587B000AF3C1D2080081C111C1A1CFB1C1870BB1C19707B1C1A701D
:401200003B1C163301221A80204B1B78052B04D03B1C1633832252001A80BB6A002B2ED0FB1C1B78002B2AD1BB1C1B78002B26D17B1C1B78022B22D13B1C0833BA6A1A60FA
:401240007B1C1B789AB23B1C08339A80104B9A883B1C08331A813C1C16343B1D3A1C08321868111C0CF094FD031C23803B1C16331B88002B03D1064B9A88064B1A803B1C25
:4012800016331B88181CBD4607B090BD8F29002098290020B414002090B585B000AF78603C1C0F347B68181CFFF7CCFC031C2370144B1B78DBB21A1C012313401FD13B1CD0
:4012C0000F331B78002B16D03B1C083312229A707B689A893B1C08331A803B1C08333A1C0F321278DA707B683A1C08321868111C0DF042F803E07B6818680DF091F8BD46E3
:4013000005B090BDB429002080B582B000AF7860BD4602B080BDC04680B582B000AF7860064B1B78DBB21A1C0123134003D07B68181CFFF7C3FEBD4602B080BDB42900202C
:4013400080B582B000AF7860064B1B78DBB21A1C0123134003D07B68181CFFF709FEBD4602B080BDB429002080B582B000AF7860BD4602B080BDC04680B582B000AF7860B7
:40138000064B1B78DBB21A1C0123134003D07B68181CFFF725FEBD4602B080BDB429002080B500AF094B00225A70084B00221A70074B1B78052B03D1054B07221A7002E02C
:4013C000034B08221A70BD4680BDC046A42900208F29002080B582B000AF78607B681B78032B3ED1254B1B78DBB21A1C0223134037D0234B1B78022B10D002DC012B05D00D
:4014000024E0032B12D0042B18D01FE01D4B1B680822FF32101C0021984717E0194B1B6884225200101C002198470FE0154B1B680A22FF32101C0021984707E0114B1B68ED
:4014400085225200101C00219847C0460B4B1B78DBB202229343DAB2084B1A70084B00221A707B681B78042B05D1074B1B78042B01D1FFF7B5FBBD4602B080BDB429002073
:401480008F2900206C2900208E29002080B500AFBD4680BD80B584B000AF78603B1C0E3300221A707B689B79002B1CD13B1C0F3300221A7012E03B1C0F331B787A68D35CED
:4014C000002B04D03B1C0E3301221A700BE03B1C0F331A783B1C0F3301321A703B1C0F331B78052BE7D93B1C0E331B78181CBD4604B080BD80B582B000AF021CBB1D1A8027
:40150000BD4602B080BDC04680B582B000AF7860BD4602B080BDC04680B584B000AF021C3960FB1D1A70BE4B1B78DBB201221343DAB2BB4B1A70FB1D1B78FA2B00D953E1C1
:401540009A00B84BD3181B689F463B1C0C3307221A703B1C0C3300225A703B1C0C33181C03F06CFE3B1C0C3307221A703B1C0C3301225A703B1C0C33181C03F05FFEAA4BAE
:401580001B68181CFFF786FF031C002B05D0A64B1B68181C02F0F2FB0FE0A44B1A78A44B1A70A44B1A78A24B5A70A34B1A78A04B9A709F4B181C02F0E1FB00200BF054FC66
:4015C0009E4B05221A7010E13B68181CFFF702FF0BE13B681A789A4B1A7006E1904B1B78DBB21A1C202313400ED1964B1B78102B02D1944B0522DA70934B1A78914B101C2B
:40160000191C0BF049FBF0E0EFE03B68181CFFF77BFFEAE03B68181CFFF776FF8B4B1B88002B01D009F036F8844B02221A70DCE0824B05221A70D8E0804B1B78022B41D09D
:40164000774B1B78DBB21A1C012313403AD0744B1B78DBB21A1C042313400BD0774B03221A706F4B1B78DBB204229343DAB26C4B1A7027E06A4B1B78DBB21A1C08231340C3
:401680000BD06E4B05221A70654B1B78DBB208229343DAB2624B1A7014E0684B1B78032B10D1664B05221A70694B1B78002B09D10120FFF7DFF9031C002B03D15F4B03227F
:4016C0001A7092E091E03B681B88181CFFF712FF8BE05D4A3B68111C1A1C0223081C111C1A1C01F0B6FB584B1B785A00594BD318594A111C1A1C0223081C111C1A1C01F0D4
:40170000A8FB564B00221A70FFF7C0FE6DE0FFF747FE6AE03B685A88514B9A4205D83B1C0E333A6852881A8004E03B1C0E33802292001A803B683A1C0E32128819880023CA
:401740000904090C1B0C1B040B43181C111C0CF01FFE4AE03B68181CFFF79EFD45E03B68181CFFF7D1FD40E03B68181C00F07EF83BE03B68181C00F033FA36E03B68181C8E
:4017800000F0F8FC31E03B68181C00F00FFE2CE03B68181CFFF7D4FD27E03B68181CFFF755FB3B68181CFFF7DFFD1D4B1B78DBB21A1C0123134004D13B6818680CF050FA76
:4017C00013E012E03B68181CFFF7D6FD0DE03B68181CFFF7A1FD08E0224B1B7801221343DAB2204B1A7000E0C0460D4B1B78DBB21A1C112313400FD0094B1B78DBB2012299
:401800009343DAB2064B1A70174B1B68FA1D11783A68081C111C9847BD4604B080BDC046B429002080390100E80000207CF1FF0FE00000207DF1FF0F7BF1FF0F8E29002013
:40184000A029002060010020A42900208A290020B2290020003701008C2900208F290020FF010000682900206C29002080B586B000AF786000233B61754B1B78012B00D0F8
:40188000E2E0744B1B78DBB21A1C0223134000D1DAE03B1C0C337A6812891A803B1C0C331B88062B05D03B1C0C331B88142B00D0C3E03B1C0A337A6852891A803B1C1433EE
:4018C00000221A8085E07B685A683B1C14331B88D3183B613B1C0C331B88062B00D06EE03B1C0F3300221A703B1C173300221A705BE03B1C17331A785749131C5B009B18F5
:401900005B00CB189A883B699B889A4246D13B1C17331A785049131C5B009B185B005B5A002B1AD13B1C17331A784B49131C5B009B185B003A69C9180423081C111C1A1CCD
:4019400001F087FA454B1B780133DAB2434B1A703B1C0F3301221A7020E03B1C17331B78012B0ED83B1C17331B785A1C3A49131C5B009B185B00CB189A883B699B889A4201
:401980000CD0374B1B683A6904320C21FF31081C111C98473B1C0F3301221A703B1C17331A783B1C173301321A703B1C17331B78022B04D83B1C0F331B78002B99D03B1CB5
:4019C0001433391C14313A1C0C32098812888A181A803A1C14323B1C0A3312881B889A4200D270E73B69002B1ED03B695A881D4B9A4219D1164B02221A70184B00221A700A
:401A000000F032F8031C002B0ED0154B1B6884225200101C002198470E4B1B78DBB202229343DAB20B4B1A700A4B1B78DBB201229343DAB2074B1A7006E0094B1B680822C1
:401A4000FF32101C00219847BD4606B080BDC0468F290020B42900204C010020B32900206C290020FFFF000090B583B000AF05E01A4B1B780133DAB2184B1A70174B1B7876
:401A8000022B0AD8154B1B781A1C1549131C5B009B185B005B5A002BEAD0104B1B78022B11D80E4B1B781A1C131C5B009B185B000B4A9A18BC1D0B4B1868111C0CF022F9A6
:401AC000031C238003E0BB1D802252001A80BB1D1B88181CBD4603B090BDC046B32900204C010020A429002080B582B000AF78607B68DB88364A9B18042B00D963E09A0081
:401B0000344BD3181B689F46334B1B88002B04D17B689A88304B1A8056E0304B1B687A68063286214900081C111C98474CE02A4B5B88002B04D17B689A88274B5A8043E032
:401B4000264B1B687A68063286214900081C111C984739E0204B9B88002B04D17B689A881D4B9A8030E01D4B1B687A68063286214900081C111C984726E0174BDB88002BDE
:401B800004D17B689A88144BDA801DE0134B1B687A68063286214900081C111C984713E00D4B1B89002B04D17B689A880A4B1A810AE00A4B1B687A68063286214900081CA6
:401BC000111C984700E0C046BD4602B080BDC04600D6FFFF6C3D0100A82900206C29002080B592B000AF7860CE4B1B78DBB21A1C0223134000D124E23B1C3E337A681289D6
:401C00001A803B1C3C337A6852891A807B685B683B64C54B1B78032B00D0E7E03B1C463300221A80D8E03B6C181CFEF7F9FF031C1A1C3B1C24331A803B6C02333B643B6C75
:401C40001A783B1C24339A703B6C01333B643B6C181CFEF7E5FF031C1A1C3B1C24339A803B6C02333B643B1C3E331B88152B12D13B1C243302229A753A1C2A323B6C111C5F
:401C80001A1C1023081C111C1A1C01F0E2F83B6C10333B643BE03B1C3E331B88072B36D13B1C243301229A753B6C181CFEF7B8FF031C1A1C3B1C2433DA803B6C02333B64E2
:401CC0009A4B1B781A1C9A49131C5B009B185B00CB189B88974A93420DD0974A934210D0C0225201934200D011E03B1C2433181CFFF7FAFE0BE03B1C2433181CFFF75AF8DC
:401D000005E03B1C2433181CFFF7E2F8C0463B1C24339988854B1B781A1C8548131C5B009B185B00C3185B88994243D17F4B1B780133DAB27D4B1A7000F090F9031C002B5A
:401D400037D00222FF3293422BD1774B04221A70764B00221A7000F0DFFA031C002B1ED081225200934212D16F4B05221A70734B1B681222FF32101C00219847694B1B7825
:401D8000DBB202229343DAB2664B1A7008E06B4B1B6885225200101C0021984700E0C04608E0664B1B680A22FF32101C0021984700E0C0465B4B1B78DBB201229343DAB2D3
:401DC000584B1A703B1C4633391C46313A1C3E32098812888A181A803A1C46323B1C3C3312881B889A4200D21DE72AE14E4B1B78022B00D025E13B1C463300221A8017E1AC
:401E00003B6C181CFEF70CFF031C1A1C3B1C0C331A803B6C02333B643B6C181CFEF700FF031C1A1C3B1C0C335A803B6C02333B643B6C181CFEF7F4FE031C1A1C3B1C0C330B
:401E40009A803B6C02333B643B1C3E331B88062B04D13B1C0C3302229A7574E03B1C3E331B88082B00D06EE03B1C0C3301229A753B6C181CFEF7D4FE031C1A1C3B1C0C332E
:401E8000DA803B6C02333B643B1C443300221A8034E03B1C44331A882549131C5B009B185B00CB189A883B1C0C33DB889A421ED13B1C44331A881E49131C5B009B185B0001
:401EC0005B5A002B13D13B1C44331A881849131C5B009B185B00381C0C300222C91882180423081C111C1A1C00F0B3FF0BE03B1C44331A883B1C443301321A803B1C443372
:401F00001B88022BC5D9094B1B781A1C0849131C5B009B185B00CB189B881A1C084B9A4210D010E0B42900208F290020B32900204C01002001180000041800006C290020CA
:401F400012180000C0463B1C0C3319883E4B1B781A1C3E48131C5B009B185B00C3185B88994253D1384B1B780133DAB2364B1A70FFF77AFD031C002B47D080225200934255
:401F800033D1334B03221A702F4B00221A7000F065F8031C002B26D00222FF32934212D12B4B05221A702B4B1B681222FF32101C00219847284B1B78DBB202229343DAB266
:401FC000254B1A7010E0234B1B680A22FF32101C00219847204B1B78DBB202229343DAB21D4B1A7000E0C04610E01A4B1B6884225200101C00219847174B1B78DBB20222F2
:402000009343DAB2144B1A7000E0C046124B1B78DBB201229343DAB20F4B1A703B1C4633391C46313A1C3E32098812888A181A803A1C46323B1C3C3312881B889A4200D241
:40204000DEE6BD4612B080BDB32900204C0100208F2900206C290020B429002090B583B000AF05E01D4B1B780133DAB21B4B1A701A4B1B78022B0AD8184B1B781A1C18495C
:40208000131C5B009B185B005B5A002BEAD0134B1B78022B18D8114B1B78181CBC1D114A0F49031C5B001B185B00585ACB185B881B04191C014300230B1C1068191C0BF027
:4020C000EDFD031C238003E0BB1D0222FF321A80BB1D1B88181CBD4603B090BDB32900204C010020A429002080B582B000AF3B1C00221A803B1C00225A801A4B1B78002BE3
:4021000009D1194B5B8801339AB23B1C1A80174B1A893B1C5A80134B1B78012B0DD1144B5B88002B09D0124B5B8801339AB23B1C1A800E4BDA893B1C5A803B1D3A1C1268D0
:402140001A603A1D002311880904090C1B0C1B040B43528812041B041B0C1343181CBD4602B080BDB3290020902900204C0100209829002080B58AB000AF78603B1C0833BF
:4021800000225A805F4B1B78042B00D0B6E05E4B1B78DBB21A1C0223134000D1AEE03B1C1E337A6812891A807B681A7B3B1C08331A753B1C08337A6812881A803B1C0833E9
:4021C0001B7D012B04D13B1C263304221A8003E03B1C263312221A807B685B683B623B1C243300221A8047E03B6A181CFEF718FD031C1A1C3B1C08335A803B6A02333B6286
:402200003B1C08331B7D022B0ED13A1C0C323B6A111C1A1C1023081C111C1A1C00F019FE3B6A10333B621DE03B6A181CFEF7F8FC031C1A1C3B1C08339A803B6A02333B624F
:40224000324B1B78002B04D13B1C0833181CFEF7D9FD2E4B1B78012B04D13B1C0833181CFEF762FE3B1C2433391C24313A1C2632098812888A181A803A1C24323B1C1E33D4
:4022800012881B889A42AFD33B1C08335A88204B1B889A422AD11D4B1B780133DAB21B4B1A7000F039F8031C002B1ED081225200934212D1134B05221A70164B1B68122252
:4022C000FF32101C002198470F4B1B78DBB202229343DAB20C4B1A7008E00E4B1B6885225200101C0021984700E0C046064B1B78DBB201229343DAB2034B1A70BD460AB046
:4023000080BDC0468F290020B4290020B3290020B81400206C29002090B583B000AFFFF7E3FE031C1A1C3B1C1A600BE01C4B1B780133DAB21A4B1A70FFF7D6FE031C1A1C11
:402340003B1C1A603B1C1B88012B09D03B1C5B88002B05D03B1C1A883B1C5B889A4203D90F4B1B78012BE1D90D4B1B78012B0DD8BC1D0C4B3A1C1868111C0BF079FC031CD7
:4023800023803B1C5A88084B1A8003E0BB1D812252001A80BB1D1B88181CBD4603B090BDB3290020A4290020B814002080B582B000AF7860B04B1B78DBB21A1C02231340CC
:4023C00000D156E17B689B790A2B00D051E1AB4B1B78052B00D94BE19A00A94BD3181B689F46A64B02221A70A64B00221A70FFF73BFB031C002B4ED08022520093423AD164
:40240000A14B1B681022FF32101C002198479B4B03221A709B4B00221A70FFF71FFE031C002B26D00222FF32934212D1934B05221A70954B1B681222FF32101C0021984794
:402440008D4B1B78DBB202229343DAB28A4B1A7010E08D4B1B680A22FF32101C00219847854B1B78DBB202229343DAB2824B1A7000E0C04610E0844B1B6884225200101C92
:40248000002198477C4B1B78DBB202229343DAB2794B1A7000E0C046774B1B78DBB201229343DAB2744B1A70E3E0764B1B780133DAB2744B1A70FFF7D7FA031C002B3FD08B
:4024C00080225200934233D16B4B1B78DBB201229343DAB2684B1A70684B03221A70694B00221A70FFF7BAFD031C002B1ED00222FF32934212D1614B05221A70624B1B6836
:402500001222FF32101C002198475B4B1B78DBB202229343DAB2584B1A7008E05A4B1B680A22FF32101C0021984700E0C04608E0554B1B6884225200101C0021984700E003
:40254000C0464D4B1B78DBB201229343DAB24A4B1A708EE04B4B1B780133DAB2494B1A70FFF77CFD031C002B37D00222FF3293422BD1424B04221A70424B00221A70FFF732
:40258000CBFE031C002B1ED081225200934212D13A4B05221A703C4B1B681222FF32101C00219847344B1B78DBB202229343DAB2314B1A7008E0344B1B6885225200101C62
:4025C0000021984700E0C04608E02F4B1B680A22FF32101C0021984700E0C046264B1B78DBB201229343DAB2234B1A7041E0254B1B780133DAB2234B1A70FFF78DFE031C17
:40260000002B1ED081225200934212D11B4B05221A701D4B1B681222FF32101C00219847154B1B78DBB202229343DAB2124B1A7008E0154B1B6885225200101C0021984764
:4026400000E0C0460C4B1B78DBB201229343DAB2094B1A700DE0084B1B78DBB21A1C0123134004D07B68181CFEF770FD01E000E0C046BD4602B080BDB42900208F290020B2
:40268000803D0100B32900206C29002080B500AFBD4680BD80B586B000AF3A60FB1D021C1A70BB1D0A1C1A703B1C163300221A80FB1D1B78082B04D93B1C163301221A8017
:4026C00021E0FB1D1B78134A5B00D3185A883B1C08331A81BB1D1B789AB23B1C08339A803B1C08333A681A603B1C0833181C0021002200230CF0D0FA031C002B03D03B1C05
:40270000163301221A803B1C16331B88181CBD4606B080BD983D010080B500AF00F05EF8BD4680BD80B500AF054B054A1268802109060A431A6000F017F8BD4680BDC0462D
:402740000000244080B500AF064B1B78002B04D1FFF7E2FF034B01221A70FFF7E3FFBD4680BDC046BC14002080B500AFBD4680BD80B582B000AF00237B60044B1B687B6068
:402780007B68181CBD4602B080BDC0464003244080B582B000AF054B1A681F2313407B607B68181CBD4602B080BDC0460803244080B582B000AF7860C046064B1A681F2384
:4027C0001340082BF9D0044B7A681A60BD4602B080BDC046080224404002244080B500AF184B194A1A60194B00221A60184B01221A60184B184A1A60184B07221A60184B07
:4028000000221A60174B01221A60174B124A1A60164B00221A60164B04221A60154B00221A60154B00221A60144B00221A60144B00221A60134B00221A60134B00221A60E5
:40284000BD4680BD000024400B00000240002440480024400003244007000080040324401003244044002440000224400402244050002440880E2440C80E2440480F24406C
:40288000080F2440C80F2440880F244080B582B000AF00237B60FFF77BFF031C002B03D0FFF766FF031C7B60084B1A68D8239B00134005D000237B60044BD82292001A608B
:4028C0007B68181CBD4602B080BDC046C00F244080B500AF0B4B0B4A126801218A431A60094B094A126830218A4310210A431A60054B054A126807218A4301210A431A60F6
:40290000BD4680BD00F02E4000FF2E4080B500AF0E4B0E4A126802218A431A600C4B0C4A126807218A4302210A431A60084B084A126830218A4320210A431A60034B034A2D
:40294000126801210A431A60BD4680BD00F02E4000FF2E4080B584B000AF78600023FB60154B154A126801210A431A60134B144A1A60144B134A1268802109020A431A607A
:402980007B68002B13D01023FB600DE0012000F085F800F019F8031C002B02D00023FB6005E07B68013B7B607B68002BEED1FB68181CBD4604B080BD60F02E4078002E40A7
:4029C0000220000010002E4080B500AF034B1A6801231340181CBD4680BDC0460C002E4080B500AFFFF774FF044B044A1268802109060A431A60BD4680BDC04600F02E4099
:402A000080B584B000AF78600C4B1A6801231340FB607B68002B02D0012B03D005E0FFF757FF06E0FFF772FF03E0002000F008F8C046FB68181CBD4604B080BD00F02E40BC
:402A400080B582B000AF021CFB1D1A7001BEBD4602B080BD80B582B000AF786008E00C4B1B68181C00F030F87B680A4A9B187B607A6880231B029A42F1D8074B1B687A6810
:402A80005343181C00F020F8BD4602B080BDC046700100200080FFFF6801002080B582B000AF021CBB1D1A80BB1D1B88044A12785343181C00F008F8BD4602B080BDC04609
:402AC0006C010020000000000230800803D00138FDD1C046C046C0467047EFF3108072B6704780F31088704780B582B000AF78600A1CBB1C1A80BB1C1A887B681A60BD467B
:402B000002B080BD80B582B000AF78600A1CBB1C1A80BB1C1A887B681A60BD4602B080BD80B582B000AF021CBB1D1A80BB1D1B88181CFFF7B3FFBD4602B080BD80B500AF86
:402B400000F068F8BD4680BD80B500AF00F06CF8BD4680BD80B500AF00F066F8044B181C00F024F8032000F02DF8BD4680BDC046712C000080B500AF024B181C00F004F820
:402B8000BD4680BD712C000080B582B000AF786000F04AF87B68181C00F008F8032000F011F800F037F8BD4602B080BD80B582B000AF7860024B7A681A67BD4602B080BD54
:402BC0000000002090B585B000AF021CFB1D1A700623FB603C1C0B34FFF77FFF031C23700B4B0B4A1268C021101C8843011CFA1D1078FA68041C9440221C0A431A603B1C20
:402C00000B331B78181CFFF76CFFBD4605B090BD0CE400E080B500AF024B802252011A60BD4680BD00E100E080B500AF024B802252011A60BD4680BD80E100E090B583B01F
:402C400000AFFC1DFFF749FF031C2370074B074A126804218A431A6030BFFB1D1B78181CFFF73FFFBD4603B090BDC04610ED00E080B500AF10F0CEFBBD4680BD002934D011
:402C80000123002210B488422CD301242407A14204D2814202D209011B01F8E7E400A14204D2814202D249005B00F8E7884201D3401A1A434C08A04202D3001B5C082243A1
:402CC0008C08A04202D3001B9C082243CC08A04202D3001BDC082243002803D01B0901D00909E3E7101C10BC7047002801D00020C04307B4024802A14018029003BDC04687
:402D0000D90000000029F0D003B5FFF7B9FF0EBC4243891A1847C046002941D010B4041C4C40A44601230022002900D54942002800D5404288422CD301242407A14204D260
:402D4000814202D209011B01F8E7E400A14204D2814202D249005B00F8E7884201D3401A1A434C08A04202D3001B5C0822438C08A04202D3001B9C082243CC08A04202D3C2
:402D8000001BDC082243002803D01B0901D00909E3E7101C6446002C00D5404210BC7047002806D003DB0020C043400801E08020000607B4024802A14018029003BDC046E1
:402DC000190000000029EBD003B5FFF7A7FF0EBC4243891A1847C0467047C046014B18687047C0461404002070B50E4B0E4D0024ED1AAD101E1CAC4204D0A300F358984723
:402E00000134F8E711F020F8084B094D0024ED1AAD101E1CAC4204D0A300F35898470134F8E770BD543E0100543E0100543E01005C3E010030B50023934208D0C55C01336C
:402E4000CC18013C2478A542F6D0281B00E0002030BD10B50023934203D0CC5CC4540133F9E710BD031C8218934202D019700133FAE770470FB40B4B13B51C68002C05D0EC
:402E8000A369002B02D1201C00F008FD05ABA168201C049A019300F09BF816BC08BC04B01847C0461404002070B5051C0E1C002804D08269002A01D100F0F0FCAC68A389D7
:402EC0001A0702D52369002B19D1281C211C00F069FB002813D00120404245E03178002B1BDAA269934211DA281C221C00F002FB013043425841C0B20028ECD10136A368A6
:402F00003278013BA360002AE8D10CE023681970236819780A2903D1E6E722681170236801332360EAE7002B17DAA269934208DB22680A231370236819780A2911D1281C29
:402F400001E0281C0A21221C00F0D4FA013043425841C0B2002806D0BDE722680A2313702368013323600A2070BD000008B5034B011C1868FFF798FF08BDC0461404002097
:402F8000936810B5013B9360002B05DA9469A34208DBCBB20A2B05D01368581C10601970C8B201E000F0A6FA10BDF8B5061C0F1C141CD518AC4208D02178301C3A1CFFF71E
:402FC000DFFF0134431CF5D100E00020F8BD0000F0B59FB0061C0F1C03920593002804D08169002901D100F059FC754B9F4201D1776808E0734B9F4201D1B76803E0724BE6
:403000009F4200D1F768BB891A070AD53B69002B07D006AD00236B6120236B763023AB763BE0301C391C00F0BDFA0028F1D001204042C2E0059A111D12680591002A76DB72
:403040000992013423782E2B00D181E021785F48032200F0E3FC002807D05C492A68431A402098401043286001342178631C584806220393297600F0D1FC002800D18AE016
:40308000544B002B7ED1059B072207339343083305936A69049953186B61039C2378002B04D10399611A029110D003E0252BF8D00134F3E7301C391C039A029BFFF775FF91
:4030C000013075D06A69029953186B612378002B6ED0012252426A606A4600235B3201342B60EB60AB601370AB6521783A48052200F094FC002808D0374A0134831A0120F1
:4031000098402B6818432860EFE72B68D90603D56A4620215B3211701A0703D56A462B215B32117022782A2A84D0099B05E05242EA60022213432B6083E72278303A092AD0
:4031400004D80A214B4301349B18F6E7099379E763782A2B09D1059B02341A1D1B680592002B0DDA01235B420AE0013400232278303A092A04D80A214B4301349B18F6E722
:40318000079363E705AB0093301C291C3A1C134B00E000BF07E005AB0093301C291C3A1C0E4B00F091F804900499013100D070E7BB895A0600D53AE70B981FB0F0BDC046D8
:4031C000E83D0100083E0100283E0100BA3D0100BE3D010000000000B43D0100AB2F0000F7B5151C01930A698B68061C0C1C934200DA131C221C2B6043321278002A01D079
:4032000001332B602068800602D52B6802332B60216806270F401FD0231C43331B785A1E9341226892061FD5E11840313020C870211C5A1C45310978A21840320233D170BB
:4032400012E0221C301C019919320123089FB847013011D0009F01370097E0682968009F431A9F42EDDBD7E7221C301C01994332089FB847013002D10120404223E02068F6
:4032800006212B68E26801400025042903D1D51AEB43DB171D40A26823699A4201DDD31AED1800270097009FAF420BDA221C301C01991A320123089FB8470130DCD0009F0C
:4032C0000137EFE70020FEBDF0B50D1C8BB0433506920590079304950B7E0C1C109A6E2B00D1A7E011D8632B22D009D8002B00D1B0E0582B00D0C0E045310B707B4D4EE008
:40330000642B1CD0692B1AD0B7E0732B00D1A5E009D86F2B29D0702B00D0AEE00E68202333430B6036E0752B1FD0782B32D0A4E013680D1C191D423511601B689FE02168E7
:4033400013680E0603D5191D11601E6805E04806F9D5191D116000215E5E644B002E3BDA049D2D2276422A7036E0216813680E0603D5191D11601E6804E04806F9D5191D97
:403380001E881160594B227E039308276F2A1ED00A271CE0231C78214533554D197011682368081D039510601E0601D50E6802E05806FBD50E88D90702D5202213432360A5
:4033C0001027002E03D1226820239A432260231C002243331A7001E003930A276368A360002B03DB2568042295432560002E02D1049D002B0ED0049D301C391CFFF782FC17
:403400000398013D435C301C2B70391CFFF736FC061EF1D1082F09D12168C90706D5626823699A4202DC013D30232B70049E731B23612AE0086813684969050604D5181DD5
:4034400010601B68196005E04606F8D5181D10601B68198000232361049D16E01368191D11601D68281C00F0DFFB63682061984200D923612069606004E0251C42352B702B
:4034800001232361049E00233370079E05980096211C09AA069BFFF7A3FE013002D10120404221E02A1C059806992369079DA8470130F4D02668B60705D4099BE0689842D4
:4034C00012DA181C10E00025E0680999431A9D42F3DA221C0598069919320123079EB0470130DCD00135EFE70BB0F0BDC53D0100D63D010070B5051C0E1C141C002804D01B
:403500008269002A01D100F0C9F9234B9C4201D16C6808E0214B9C4201D1AC6803E0204B9C4200D1EC68A369A360A3891A070AD52369002B07D022682369F6B2D01A62695B
:4035400090420FDB08E0281C211C00F02BF80028F1D0012040421DE0281C211C00F01EF90028F6D1A3680130013BA36023685A1C22601E706369984205D0A389301CDA07B3
:4035800008D50A2E06D1281C211C00F007F90028DFD1301C70BDC046E83D0100083E0100283E0100344B70B51D68061C0C1C002D05D0A969002902D1281C00F06FF92F4BEA
:4035C0009C4201D16C6808E02D4B9C4201D1AC6803E02C4B9C4200D1EC68A28993B2190721D4D90605D40923336040231A43A2813FE05A0713D5616B002908D0231C4433FC
:40360000994202D0301C00F015FA00236363A38924229343A3810023636023692360A38908221343A381216900290BD1A389A02292001A4080239B009A4203D0301C211C99
:4036400000F09CF9A38901221A4005D061690022A2604A42A26103E0990700D46269A26022690020824206D1190604D540221343A3810120404270BD14040020E83D01005E
:40368000083E0100283E0100F7B58B89051C0C1C19075ED46268002A02DC276C002F1ADDE76A002F17D000222E682A60802252011A4001D0626D15E0281C216A0123B847F7
:4036C000021C411C0ED12B68002B0BD01D2B01D0162B02D12E6000205EE0A38940210B43A38159E0A3895F0706D56168636B521A002B01D0276CD21B281C216A0023E76A57
:40370000B847A289411C06D12B68002B03D01D2B01D0162B19D10023636023692360D70405D5411C02D12A68002A00D16065616B2E600029CFD0231C4433994202D0281C61
:4037400000F078F90020606326E040231A43A28122E02669002EBED027680022BF1B01972660990700D16269A260019F002FB2DD281C216A321C019BA76AB847002806DCB7
:40378000A389402213430120A381404204E0019F36183F1A0197E8E7FEBD00000A6938B5051C0C1C002A01D100201CE0002804D08369002B01D100F071F80B4B9C4201D10C
:4037C0006C6808E0094B9C4201D1AC6803E0084B9C4200D1EC680C22A35E002BE4D0281C211CFFF751FF38BDE83D0100083E0100283E0100F8B5041C071C4834002C12D0A4
:40380000A5686668013E0CD4AB89012B07D90E22AB5E013303D0381C291CFFF7BFFF6835F0E72468EAE7F8BD002310B5041C03604360836081814366C28103614361836170
:40384000191C08225C30FFF70DFB054B24626362044BA362044BE362044B236310BDC046913B0000B93B0000F13B00001D3C000070B54B1E68255D430E1C291C743100F030
:4038800021F9041E08D00021016046602A1C0C30A0606832FFF7E6FA201C70BD836913B5041C002B27D18364C3640365124B134A1B688262984201D101238361201C00F003
:4038C0001FF86060201C00F01BF8A060201C00F017F80421E06000226068FFF7A5FFA06809210122FFF7A0FFE06812210222FFF79BFF0123A36113BDB03D0100F537000063
:40390000F8B51D4B071C1E68B269002A02D1301CFFF7C4FF4836B4687368013B05D40C22A55E002D10D06834F7E73368002B06D1381C0421FFF79CFF3060002801D036689C
:40394000E9E70C233B6016E001235B42E381201C0123A38165662560A560656025616561A5615C30291C0822FFF77CFA6563A563A564E564201CF8BDB03D0100F0B58B8981
:4039800091B0051C0C1C9A0725D40E23C95E002906DAA78980231F400FD0002740260EE001AA00F06FF90028F3DB029BF0273F02184A1F40BF187B425F418026F600281C33
:4039C000311C00F07FF800280CD1A3899A051FD402221343A381231C4733236023610123636115E00C4B8022AB62A38920601343A38120616661002F0AD00E23E15E281CE4
:403A000000F052F9002803D0A38901221343A38111B0F0BD00E0FFFFF5370000C9B28218904204D003788B4202D00130F8E700207047000030B5002940D004390B68002B5A
:403A400000DAC9181E4A1368141C002B02D14B60116033E099420FD208680A189A4205D113685268C01808604A6000E04B60216024E08A4203D8131C5A68002AF9D11D680B
:403A80005C198C420BD10968691858181960904214D114685268091919605A600EE08C4202D90C23036009E008680C18944203D114685268001908604A60596030BDC0466D
:403AC0005C29002070B50323CD1C9D430835061C0C2D01D20C2501E0002D3FDB8D423DD3204B1C681A1C211C002913D00868431B0DD40B2B02D90B60CC181EE08C4202D14E
:403B0000636813601AE0486860600C1C16E00C1C4968E9E7144C2068002803D1301C00F025F82060301C291C00F020F8431C15D0C41C03239C4384420AD12560201C0B30FA
:403B40000722231D9043C31A0BD05A42E25008E0211A301C00F00AF80130EED10C233360002070BD5C2900205829002038B5074C0023051C081C2360FCF7FEFD431C03D191
:403B80002368002B00D02B6038BDC046B829002038B50C1C0E25495F00F0ACF8002803DB626D1318636503E0A289024B1340A38138BDC046FFEFFFFFF8B51E1C8B89051CD7
:403BC0000C1C171CDA0505D50E23C95E0022022300F07CF8A289054B281C1340A3810E22A15E331C3A1C00F027F8F8BDFFEFFFFF38B50C1C0E25495F00F068F8A389421C2A
:403C000003D1054A1340A38104E0802252011343A381606538BDC046FFEFFFFF08B50E23C95E00F01DF808BD0023C25C0133002AFBD1581E7047000038B5084C051C0020F2
:403C40002060081C111C1A1CFCF71CFD431C03D12368002B00D02B6038BDC046B829002038B5074C0023051C081C236000F056F8431C03D12368002B00D02B6038BDC04649
:403C8000B829002038B5074C0023051C081C111C236000F04BF8431C03D12368002B00D02B6038BDB829002038B5074C0023051C081C236000F042F8431C03D12368002B00
:403CC00000D02B6038BDC046B829002038B5084C051C00202060081C111C1A1C00F036F8431C03D12368002B00D02B6038BDC046B829002038B5084C051C00202060081C60
:403D0000111C1A1C00F02AF8431C03D12368002B00D02B6038BDC046B8290020024B5822012040421A607047B8290020024B5822012040421A607047B8290020024B5822CF
:403D400000201A607047C046B8290020024B5822012040421A607047B8290020024B5822012040421A607047B829002010B501F001FA10BD10B500F0DBF810BD10B50749CB
:403D8000044609780220002907D1204601F018FA002802D1204609F02DF910BD90020020F7B51F4E0024307815460F46002804D00824B76075802046FEBD002F00D101249E
:403DC00001F0D8F90098002805D0172D03D301204002854201D90124EBE7002CE9D12946384600F023F80400E3D1706800F01CF80400DED1706800F015F80400D9D101F0BE
:403E0000C1F90400D5D1009806F0E8FB0400D0D106F0FAFB0400CCD101203070C9E70000740100200020704700207047F8B50D4607460026FEF79EFEFEF786FE00F02EFA33
:403E4000040065D100F0A0FB040061D13449084600F072FD0404240C5AD1A80705D0A807800F0421081A401985B2172D02D968002E3886B22B48301881B2384601F05EF849
:403E8000040045D1284F03460246002825D127495E008E5B294610318E4207D99000C01941800221521C4170D2B215E08E420BD10020787690001D49C0194680891FC95CAA
:403EC000891C4170012012E0052A06D1164806461436418302207071012014495E008E5B9100C9194E80114EB61FF65C4E705B1C521CDBB2D2B2062BC7D30B4800F06CF8E6
:403F0000002C05D100F084F807490120891E087000F0D6F9002C01D0FF20F8BD0020F8BD453F0000940C000082010020863E010010B503480078012801D100F08FFE10BDC5
:403F4000800100207047000010B5011F0878034A8000105800F092FF10BD0000C414002010B5044604498000085800F0F5FE002801D00470001D10BDC414002038B5044664
:403F800092B2C9B2684600F00DFF024AA1000098505038BDC414002070B50B49064600204C6805466178002908D06188B14202D32078FFF7D5FF002804D1241D6D1CEDB24F
:403FC000082DEFD370BD0000A401002010B5002801D0FFF7B9FF10BD70B50B4E0446002570606178002905D062882078121D0023FFF7C4FF6D1C241DEDB2082DF1D30248D2
:4040000000F08EFFB06070BDA4010020002070471CB5002469460C70142001902346054A05480CF0F9FD04480068401C00D1FF2420461CBD8D400000B00100203EB5124A1E
:404040000146FF2000230124126800290DD0012914D0042908D104206946009308814B8110460CF0D4FD80B23EBD6846009304814381694610460CF0C5FDF4E7684600938A
:40408000048143816946EBE7B001002070B54589046841680089030000F026F806240408081D2124002005F03FF91BE0022908D0C8B22A4621460BF005F82046FFF786FFAE
:4040C00010E002202A4621460AF0FCFF2946204600F018F806E000200CF092FA02E020460CF020FE002070BD30B47446641E2578641CAB4200D21D46635D5B00E31830BC6F
:4041000018470000014B0022DB681847B401002070B5448905680089022803D0032809D0FF2070BD2246094C0023A46829460120A04708E0FFF71AFE241DA2B20023294686
:40414000022006F02EF9002070BD0000B401002070470000024800214160018041807047B401002070B50C46002186B016460391012802D0022859D116E003A9012006F087
:4041800068F901281BD1039D324621462846FEF760FE0095287801900220694608814E816846FFF7B5FF41E0214D002B686809D0049004A9022006F04CF901281DD00220C9
:4041C00006B070BD002812D0298840182146FEF740FE28880024801980B228806988091D884206D12C801348FFF792FF03E00320E6E788421AD96C6018E004986860E27890
:40420000A378110219430B4A698000231060E3565360032313815181A1788170E178C1706178417021780170042028800020C7E7B4010020E41400203EB515460C46022832
:4042400003D004280CD000203EBD0091019002206946088107484A8100680CF0D8FC07E00AF030FF044B0022DB6829462046984701203EBDB0010020B4010020014AD160C4
:4042800090607047B4010020034801688068081A0A21484300097047F014002010B5FEF759FC542204490548FEF7D3FD03490120C870002010BD0000963E01004017002068
:4042C00010B5FEF73BFC10BD70B5134C2368002B08D0207B1149C20705D04008400020738868A08070BD88680B4AA18880B29268814203D90A4D691A091802E0814202D256
:40430000411A5118A160A080A0689842EAD300F015F80CF099FC70BDF0140020C0102E40FFFF000010B508461946FFF7A7FF10BD704710B5FFF780FF10BD000003480021D9
:40434000016041608160C16070470000F014002010B502000DD0FFF7F1FF074C0321207B0843207310010A21FEF7CCFC2060002010BDFF2010BD0000F014002000B504486D
:404380000A21806848430209FFF7D8FF104600BDF01400200248007B8007C00F70470000F014002070B558490868002802DA574B01221A70022290430860554800695249D1
:4043C000C00B4031096A08426CD0012000F060FA4F4850497C30FEF795FB4B480E216C30FEF790FB4A4820218430FEF78BFB484814219C30FEF786FB4548FF21C131A43062
:40440000FEF780FB4248FF212F31B030FEF77AFB3F484149BC30FEF775FB3D483F49AC30FEF770FB3D493A48491CB430FEF76AFB37483B49B830FEF765FB35483949CC3027
:40444000FEF760FB324838490830FEF75BFB30483649A830FEF756FB2D4835498830FEF751FB2B4833498C30FEF74CFB28481921C9029030FEF746FB2F4D287E697E0C0204
:404480000443A87FE97F2D4A090201432C48914201D1072C08D035229201914208D1042C05D005E0FF2070BD0146042400E0014617486C30FEF726FB154821467430FEF76C
:4044C00021FBA87EE97E0902014301204003814201D0002900D11B490D487830FEF712FB2A7F687F010218481143814204D01748814201D0052901D113490A390448803003
:40450000FEF700FB002070BD00F02E40C401002000002E4055650000320300002F3F00003102000010520000EC160000FA12000031D000003AE30000C0F0FF0F580B00004E
:40454000580D0000022000000F0F00000505000070B50646581C80B245086D00002408E0304600F067F81055000A1119A41C4870A4B2AC42F4D3D80705D0D0182038D15CAD
:40458000C47FD454C17770BD10B5FF2000F080F90F49FF2048700E481021801D41800121417001700A490020C91C4870FFF7FAFE04000AD100F0CCF807210648FEF794FAFC
:4045C000044807211830FEF78FFA204610BD0000C4010020CC112E4030B504465B1C1804450C002308E0204600F024F8241D59005B1CA4B250529BB2AB42F4D330BD000097
:4046000070B500210A4D5B1E0AE0541864782602545C344346193480001D891C80B289B29942F2DB994202D1515C4019018070BD00102E40014940180088704700102E40BA
:40464000014A80180180704700102E4010B50B490020487000F07CF8002000F03FF9002000F02CF907210648FEF73EFA044807211830FEF739FA002010BD0000C701002073
:40468000CC112E4010B50B46062812D006DC01280CD0032801D1FFF7D9FF10BD0A28FCD00B28FAD105480078107010BDFFF76CFF10BD1146184600F02DF910BDCA0100204B
:4046C000F8B5204DAC6A0127A0071F4E002816DA307806280ED1286A384328621B480069F903084381B219481030FEF70BFA042000F0CEF8134802212830FEF7F5F9E0078F
:4047000011D0062000F0C4F80F49FF20C91E48707078002802D1686B38436863094801212830FEF7E1F9E0050BD53078042802D1052000F0ADF80348FF2101312830FEF70A
:40474000D3F9F8BD40F02E40C701002000002E4010B503212348FEF7D5F90120FEF7E0F920483038406A204C80076178800F890001431C480C38FEF7C5F96078002808D0E9
:40478000401E022181401820FEF71CFBC000083800E0B82081B21548FEF7B4F91348032109021438FEF7AEF910481149B830FEF7A9F9452189010F48FEF7A4F90D48032194
:4047C000001FFEF79FF90C490C48FEF79BF90B480B496038FEF796F9084801218838FEF791F910BD70F02E40CA010020D8102E4090890000041E2E40FF0F000058122E40FC
:40480000209000000849087806280BD148780749002803D1486B400840004863C86A01221043C86270470000C701002040F02E400148007870470000C701002000B50300D4
:40484000FFF752FC080D050D0B070507090D012000BD032000BD042000BD022000BDFF2000BD0000074A9168D26889B2064B92B2994204D105498A4201D1012100E000212C
:404880000170704780002E4033D000003FE3000010B50446FEF758F9072C01D9FF2C01D102480470FEF74AF910BD0000C70100200149487070470000C401002010B5064A00
:4048C000012805D01921C9021046FEF71BF910BD1D21C902F8E7000090002E4010B50A4A141D012808D009491046FEF70BF908492046FEF707F910BD04491046891CFEF701
:4049000001F90349491DF3E788002E4031D000003AE300000078074AFF2803D04C2804D9553803E01078087070474F380870107070470000C601002010B50F4A00231360D1
:404940000E4A13600E4B18600E4801600E49012008600E490860000290600E490C4808600D4914300860FF381538506000F0BCF800F0CAF9002010BDE8010020D0010020CC
:40498000FC01002000020020EC010020DC01002000160020E0010020F4010020014610B50020002910D0094B1A689C685118A14209D25868196080188A0704D08A07920FC4
:4049C000891A091D196010BD002010BDD0010020F8B50024164E671E321F3D463168136806E01422624310328A58521C1BD0641C9C42F6D36A1C14D02C46142254432246B2
:404A00000C3288500C214843FFF7C8FF3168002808510AD031680020103408517068401C70602846F8BD2546E4E73846F8BD0000E0010020F3B50026F64381B000281BDBBA
:404A40001E490968884217D80299002914D01B4F142204463F1D54432546396810354859401C09D0FEF770F838682F1F4159C359994203DBFEF762F83046FEBD214608311F
:404A80000091465801590C20704308180C220299FEF7DFF90948761C001D0068C159B14200D100260549009A091D865008684159491C4151FEF742F80020FEBDDC01002080
:404AC000002803DB07490968884202D90020C043704704491422091D096850431030085870470000DC010020F0B500200D4A451E0346171F50600FE0142601467143146821
:404B00000E1DA3510C461668083433511668083435511468401C635039688842ECD30020F0BD0000E0010020F3B50026F64381B0002841DB2349096888423DD80299002907
:404B40003AD0204F142204463F1D54432546396810354859401C2FD0FDF7F6FF3868415900292BD0211D009146580C21005971430F46C1190C220298FEF76BF91148002144
:404B8000001D0068761C00590C34C0190160416081600C48001D00680159B14200D100260849009A091D865008684159491E4151FDF7C4FF0020FEBD3046FEBDFDF7BEFF0E
:404BC000FAE70000DC010020FEB504460D4600201E49089E0860471E009001900290002C11D0486885420ED2002A0CD0002E0AD0642E08D808460C3001681C2068430C18F8
:404C0000207A002801D03846FEBD0120226020721846FFF7DDFE6060401C13D06681A6810A4827610C3067610179A94200D205710021684601810A462846029B00F040F8D8
:404C40002846FEBD00202072DDE70000E801002038B50124009400F039F838BDFEB50027164EFF433D4600240EE01C20316860430818017A002906D04068FFF721FF0028C3
:404C800001D0254603E0641C3079A042EDDA681C12D01C2130684D434419FDF755FF69466068FFF741FF0546FDF748FF002DD9D1216868468847D5E7FEBD0000F4010020F7
:404CC00038B50024009400F001F838BD1FB500220C49541E0A60002811DB496888420ED808491C220C31096850430818406801A9FFF7A0FE401C02D0002004B010BD20468A
:404D0000FBE70000E8010020F0B50021114A4D1E174611710C3F0B46BD6016E008461C2460431668041D355114680646235014680836A3551468361DA353044616680A3460
:404D4000335318301468491C255078688142E5D30020F0BDF401002038B500210091002811DB0F49097888420DDA0D4D04010C3529680859002807D0201D0818694600F008
:404D80005FF9002801D0002038BDFDF7DDFE28680F34015D491E0155FDF7D0FE009838BD04020020F7B582B00025ED43029800240E460560002A49D0002E47D02D48D21CC6
:404DC00002402D48174601780C30006805E022018258002A0FD0641CE4B28C42F7D3691C3ED02C01211D40180191314600F016F900282BD101E02546F1E71F480C30016837
:404E000020460C300F521C480C30016820460E300E5419480C30016820460F300E543846704300F0ADF814490C310968002808510CD00024009011E00F480C3001680198EB
:404E40000818009900F017F9002802D0012005B0F0BD0098C019641CE4B20090B442EBD30298054905600C310879401C08710020EDE70000FCFF000004020020F8B50D463C
:404E800000216A468C461180002839DB23490978884235DA214B04010C3319680A59002A2ED020460C300B5A801C0E5C184670438018954224D3854222D2002006E007466E
:404EC0005F43BF18AF4206D0401CC0B2B042F6D36046002814D0114E271DC8190C366A46294600F0F2F800280AD168460088012808D030682946C01900F0BDF8002803D0BE
:404F00000120F8BD0020F8BDFDF71EFE30680F34015D491C0155FDF711FEF3E70402002003460020002B06D0034A5168906852884018511A198070470402002070B50024FB
:404F400000F0DCF80D4E002132460C3271600EE0200113680546195013680C355953AD1C13680F3059551368641C1954E4B230788442EDD31171002070BD00000402002072
:404F8000014610B5002000290CD0C91C064B8A08596892005C888A18A24202D898685A60401810BD002010BD04020020F8B5002827DB19490978884223DA174C05010C3445
:404FC0002168485900281CD028460C30085A009028460E300E5C401C0E5420682F1DC01900F064F800280CD12068002445590EE0094829460C300068C01900F03CF8002844
:4050000001D00120F8BD00982D18641CE4B2B442EED30020F8BD00000402002030B50D4604000BD0A800FFF7ABFF6060002805D000202570C0436080002030BD012030BD55
:4050400070B50D46040005D0002D03D00220205E002801DA012070BDFDF776FD0221615E60688900405828606088401E6080FDF765FD002070BD70B50D46040007D0002DEB
:4050800005D002212078615E401E814201DB012070BDFDF759FD6088401C00B26080616880000D50FDF74AFD002070BD10B5040009D0227800216068FDF7D4FE0020C043FA
:4050C0006080002010BD012010BDF0B500231D46002802D00224045F0AE00120F0BD46689F00F6598E4201D1012503E05B1CDBB29C42F4DA15700020F0BD0000054B1122C3
:405100001A70054A1180064A044911600549086070470000040200200602002030160020100200200C0200200148007870470000180200207CB505460024FEF717FEA879F9
:405140006946087000A8062229460130FDF781FE0021684604F046FB0C2804D0072804D01F2804D004E0022402E0042400E0272420467CBD10B500F0D3F8FFF759FBFFF75D
:405180005DFB10BD10B503240CF046FA002810D10CF0EAF900280CD105F0AAF9002808D100F09CFA002804D104F09CFD002800D10024024900200870204610BD180200209F
:4051C00070B50025044600280ED0A07901280BD8FEF7CCFDA0790028204602D002F015FE03E002F0DFFD00E00125284670BD38B504460120002C20D0617801291DD80029CD
:405200000BD0FF25E535FEF7B1FD2846FFF712FAC0B22070072803D00EE0FF25CD35F2E70020694608706846FFF71CFB69460878012801D108202070002038BD70B50446E9
:405240000120002C1FD06178012902D92278092A19D8002906D0FF25E53520780726092803D003E0FF25CD35F7E72670FEF77EFD2078082808D00020FFF730FB217828467B
:40528000FFF7DEF9002070BD0120FFF727FB2670F4E7000070B50D46040001D0002000E00548002802D0012102F068F82946204602F032FB70BD0000B417002038B50546DE
:4052C00000200446009022466946284600F0B2FD0098002801D00CF081F9A878214602F058F9A878214602F047F9641CE4B2052CE9D338BD064A02235188891C89B251800F
:40530000814201D8102900D953805088704700001A02002001484078704700001A02002038B5FFF785FA042819D0052817D006281AD0032842D007280AD1002069460870FC
:4053400002460120FFF79EF9FFF772FA0128FBD138BDFDF773FCFFF76BFA0128F8D0FFF767FA0128F5D138BD02F09AF905E0FDF765FCFFF75DFA012803D0FFF759FA012887
:40538000F5D1A12424012046FFF754F901220E4983079B0F0A70022BE5D149880029E2D0104301462046FFF74BF92046FFF742F9410849002046FFF743F938BD02F074F98E
:4053C0000120FFF765FA38BD1E020020F8B50646002402F033FE0546304602F047FE00210346012632468A40174610462F401840002F03D0002801D1224394B2491CC9B2F6
:405400000529EFD32046F8BD1CB50020694648706846FFF7ECFE01AA69460A20FFF732F96946042008561CBD10B50C4601F062F8002809D00179002906D0C1788078224657
:4054400002F020FB002010BD022010BD0148007870470000801700204030C07E002800D00120704700B500F001F800BD88214843064940186030417F491CC9B2417705294A
:4054800001D300214177C8B2704700009417002013B501F02FF804000BD001F076FC002807D0214601AA0A310620FFF7EBF800201CBD02201CBD000010B50C4601F01AF8C8
:4054C00000280AD001F061FC002806D0224604490A20FFF7D7F8002010BD022010BD000069170020F3B581B0074601460026029802F09CFD0446002F01D0002500E0154DD5
:40550000002D21D0284601F02BF8032C04D13946029802F0B5FD06463846029902F02CF8032C06D0002C10D00121384601F098F903E03146384602F0D7FE284601F004FF5B
:405540000221284601F01AFFFEBD3846029902F013F8FEBDB417002070B50446002503F053FD002801D00C2070BD2078611C02F079FBFF2802D01F25284670BD02F0C6FBEA
:40558000FF2804D02178621C01F074FFF4E70725F2E710B503F038FD002801D00C2010BD02F038FB002010BD70B50D46044610210BF054FF1021601806460BF04FFF3346AC
:4055C00010221946204603F04BFD102130460BF045FF02202870204604F0CEFA70BD70B504464078217802028006850FE0781143A67809050002090D0643084600F07AFFBC
:40560000002812D0022D10D0032D0ED0002E08D00179092909D0002907D0214600F0BFF870BD0089002104F09DF920460BF0D6FF70BD0020704770B50446002503F0E4FCA8
:40564000002801D00C2070BD2078611C02F00AFBFF2802D002F05BFA00E01F25284670BD10B504F03FFB00F02DF9002010BD000010B5014605220A48FDF7EBFB0849052200
:405680000846A038FDF7E5FB00F082FC04488022B038C17B1143C17300F04AF910BD00004418002010B5044600786178E2780843A17811430843217908436179084305D0D0
:4056C00003F094FC002803D00C2010BD122010BD204602F09AFB002010BD000010B5044803F01EFD02F01CFA00F004F8002010BD50170020F8B5124D00266E706E736E7103
:405700006E76AE76EE766E75AE70EE70AE712F46EE730120B03778723F2078719B20B87103F05CFA01F012FB0024204601F0DEFA641C2406240EF8D03E72FE71AE73F8BD58
:405740009417002070B505460E46084602F076FC0446304602F08AFC0121A9400A46224001400A4301D0012070BD002070BD10B50446084602F07AFC0121A140014201D01D
:40578000012010BD002010BD10B5FFF751F8032804D101F089FF0120FFF77AF810BD70B5044600790D4609281CD000281AD020464030817E491C8176204601F0C5FDA0786F
:4057C000FFF750FE064602462946204600F00CF8002806D1A0783146FFF75CFD28460BF0FDFE70BD0846FAE7F7B5054648780C468006870FC8788978000282B001436846DF
:405800008180284601F0D6FA060007D021462846049A00F0BAFA304605B0F0BD384600F09BFB0746034601AA2946204600F0B4F968468088231DC0B20090A878FF220499DF
:4058400002F024F8684680883B46C2B2A878049902F08CFBDFE770B5002500242846FFF7B5FD060010D03046E040C007C00F07D02146284601F074FE21462846FFF732FED3
:40588000641CE4B2052CEED36D1C2D062D0EE4D070BD000070B50024094D03E0002C01D0002000E028464121095C012901D100F036FA641C2406240EF0D000F039F870BD4E
:4058C000B417002010B502F02BF9FFF713FF0BF0EDFE002010BD0000F8B5002403F020F9012800D10224114F00203E46203601230425082203E0002801D0002100E03146E5
:405900000979002907D001290BD002290BD0114681402143CCB2401C0006000EEBD07C70F8BD1C43F7E72C43F5E700009417002070B5144E0024F07BC00921D03546203521
:4059400003E0002C01D0002000E0284601F028FA012814D0641C2406240EF2D0F07B4006400EF073002403E0002C01D0002000E0284600F0D4F9641C2406240EF4D00020CA
:4059800070BD00009417002010B5FFF7A5FF10BD10B50B4681791943817103D08078114602F08CFA10BD10B582798A43827102D1807802F09BFA10BD0346084800B583424C
:4059C00009D8184600F096FD002804D00089984201D1012000BD002000BD0000FF0E0000074A9179491C8906890E917138220A4092014907090E114308430249084070477D
:405A000094170020FF0E0000C006C00E70470000F8B507460E4600240D4803E0002C01D0002500E005462979002905D0641C2406240EF3D00020F8BD204601F057F92E71F2
:405A40002046FFF7CDFF28813C700120F8BD0000B4170020F7B53D20405C88B016460C46002829D030786946087200252046FFF7F3FC012800D00125204603A938300191D0
:405A8000009023460327A17E34332A46206A03F067FB02A8089900900B46019120463A4603A9243003F0BEFA02466846007A3070204601F007F910460BB0F0BDFFB587B08F
:405AC0000C4605461078694608723D20005D1746002826D000262046FFF7BEFC012800D00126204603A93830019100902346A17E34333246206A03F033FB02A80090291D99
:405B0000019120462B1D03A924300A9A03F08AFA02006846007A388002D1204601F0D2F810460BB0F0BDF7B53C20405C88B015460C4600280CD0287869460872002806D022
:405B400000262046FFF788FC012803D003E01F200BB0F0BD0126204603A938300191009023460327E17E34333246E06903F0F8FA02A8089900900B46019120463A4603A987
:405B8000243003F081FA02466846007A2870204601F0A2F81046DBE7FFB505463C20405C87B016460C46002810D0084601F002F901280BD0308869460883002809D00027D6
:405BC0002046FFF749FC012805D005E000200BB0F0BD0220FBE70127204602A93830019100902346E17E34333A46E06903F0B8FA06A80090291D019120462B1D02A9243072
:405C00000A9A03F041FA02466846008B30806846008BA870000AE870204601F05DF81046D5E7000010B518490446484028D0002101231A468A40904221D0491C2029F8D355
:405C400000212046C840C243520618D0400616D0491C1929F5D3A0B2210C020AC3B2884201D193420BD01F21204600F07AF9182805D8A00E062100F074F9022801D20020F4
:405C800010BD012010BD0000D6BE898E002801D0002000E003484030C07F012800D0002070470000B41700200146002049070ED50021084B03E0002901D0002200E01A4683
:405CC0001279022A04D0491C0906090EF3D0704701207047B41700200146002049070ED50021084B03E0002901D0002200E01A461279022A04D0491C0906090EF3D0704774
:405D000001207047B417002010B5044680346068002803D00BF076FC0020606010BD38B50546002000902846FFF796FB01281FD1284601F02AF800281AD028792C46C01E86
:405D400040340300FEF7D0F907050511110511141100284601F034F8012806D068460BF0E3FB002805D0012008E060780028FAD038BD2846009902F0F1FB0220607038BDDE
:405D80004030817070470171704792001018C1667047000010B5002801D0002000E00348002802D0008903F051FE10BDB417002010B5002801D0002000E00448002804D07E
:405DC0000179072901D100F085F810BDB417002010B54121095C012901D1FFF7A0FF002010BD000070B50546008A00281ED010491122897A1140C90618D5294640314A8A98
:405E0000098A521C4A4392B2D10800D10121540801E0621A94B2A042FBD9FFF785F9012804D1298AA878224601F0C4FD70BD00004017002000230B60052A04D292001018BF
:405E4000C26E0A60C3667047FEB506460020009001908020855968460BF066FB002801D00720FEBD20213046009FFFF79CFD34464034A08AE080608AA080208A20813046DD
:405E800002F03CFDA88C218A884207D1288A618A884203D1688AA18A884203D0F07920210843F071688AA082288A6082A88C2082E98CE182FFF71EFAE081208AFFF72AFA62
:405EC00060733946304602F071FB0120A0700198FEBD000038B5044600200090A079002814D14020015D052901D00E290ED168460BF01AFB002809D12046009902F038FC32
:405F000003481021C28A2046FFF742FD38BD00004017002010B50446807802F00DFD204601F0AEF8002010BD10B50B4604460146184602F0D9F8002802D020460BF058FB2F
:405F400010BD13B5044601AA11460620FEF79AFB6846818861811CBD002800D102207047704770B500231A46491E0CE00446D440E507ED0F541C0646E640F407E40FA5429D
:405F800000D05B1C521C8A42F0D3D8B270BD000030B50021124C0A46A05C002308E0C50701D0491CC9B201290AD840085B1CDBB20028F4D1012903D8521CD2B2052AEBD385
:405FC00002290BD207488118C87B0122082B03D29A400243D0B200E01043C87330BD000044180020941700207FB504468034616805460E46183108226846FCF72AFF3146B2
:406000002031082202A8FCF724FF102168460BF025FA6068102108300BF020FA60682B46083024331022694603F01AF87FBD10B504460821FFF7B7FC10212046FFF7B3FCDF
:406040002079052822D0062820D008281DD12189002003F06DFC072020712046FFF7FCF9014620464030012916D00E21017000210176204601F088F82046FFF745FE2046BC
:40608000FFF7B0FE2046FFF7A3FE10BD20890122002103F031FCDEE70521E7E7FFB581B01F4604460821FFF77EFC10212046FFF77AFC2079082803D0092804D0042203E0D2
:4060C0000422012501E009220025204600F054FE264600204036307022712046FFF714FE0398002D02D0012808D00BE001280AD120890022029903F0FFFB04E021890298D3
:4061000003F016FC012700203076012F07D0204601F03AF82046FFF75BFE05B0F0BD02983073204602F05DFB054605480121C28A2046FFF72DFC002DEFD109202071ECE7D3
:406140004017002070B50C460546FFF785F9012809D108212846FFF726FC0023012221462846FFF79BFF70BD10B5044600F004FE2046FFF7C9FD00214034217010BD70B5AD
:4061800005461A24FFF768F9012809D108212846FFF709FC0023012221462846FFF77EFF70BD000038B504460020009068460BF0BBF9002801D00D2038BD2046009D00F05D
:4061C0001BFE2946204602F07DFA05480821C28A2046FFF7DDFB062040342070002038BD40170020F8B50446002000900E4668460BF09AF9002801D00D20F8BD20460421FF
:406200003430009D00F072F9842000590821183000F06CF9012E02D1204600F0EDFD2946204602F009FA05480821C28A2046FFF7AFFB0220403420700020F8BD40170020F9
:4062400010B50446FFF7D0FE032040210855204601F07AF810BD10B50021FFF7C3FF10BD38B504460021684600910BF05DF9002810D12046009A00F07FFD1146204602F05D
:406280002CFA05480821C28A2046FFF781FB07204034207038BD00004017002038B504460021684600910BF03FF900280FD12046009902F08BFA06480821C28A2046FFF720
:4062C00067FB042140200155204601F03DF838BD4017002010B5FFF7AAFE10BD00787047F8B50025002801D0002400E0194C002C29D0204600F049FD002824D02079032835
:4063000022D0052822D026464036B18AA07801F0C9FDB078012816D10021204601F014FF274680373868002802D00BF06BF93D600020B0702046FFF74BFD2079072802D164
:406340002046FFF74FFDF8BD042000E006202071F8BD0000B417002010B54C22115400F046F810BD10B50446FF21FFF71CFB09202071A07801F0C6FD10BD000038B5FF2136
:406380006A461180002801D0002400E0064C002C08D011460620FEF775F9684601882046FFF7CFFD38BD0000B417002010B504468079002809D022214C200155FF21204696
:4063C000FFF7F1FA204600F012F810BD10B5037902464032002B03D01173092B02D003E0002100E02221117300F001F810BDFEB5044600890027019027812079264640364A
:40640000002817D0012815D002280AD112E002AA6946204601F056FE002807D100980BF0E7F8204601F076FE0028F0D02046FEF745FFB776254680352868002802D00BF0AC
:40644000E1F82F606868002802D00BF0DBF86F60317B002902D0019800F041F8A078002101F0E0F8A07801F0C1F9A07800F080FE0B20FFF789FA00F01DFDFEBD70B50E46B7
:40648000054602F02DFE044606702846FEF7E4FF014601204140204661700C3001F059F9002D10D02889608028464030C1782171002E10D169796171018AE180418A21816C
:4064C000808A608107E01820FEF7B4F8C005C00F207100206080204603F0D3F970BD0A4610B50146002003F0C9FA10BD10B50AF091FD10BD00B50146FFF786FA002801D0F6
:40650000002000E00348002802D002898A4200D0002000BDB417002038B5044680346068002806D168460BF00FF8002801D100986060606838BD000010B5014600F03AFC84
:406540000128887802D0FEF791FF10BD88214843024940186030007F10BD00009417002070B5054604464035A87F012811D1A1788820084A484380186030067F3046FFF738
:40658000E1F8002805D10220A877A078314601F0D1F970BD9417002010B50E4CE079002816D0FFF758F90C48827FC17F808B00F095FC01280CD10020E07101F08DF804465C
:4065C000AC20FEF737F8010B02D0204600F0C8FA10BD0000441800209417002070477047490510B5490F0B00FDF77EFD060704080C0C0F073E21FFF7AFFE10BD0821FFF719
:40660000E5FE10BDFFF7F3FE10BDFFF7CFFE10BDF8B507460025002D01D0002600E0204E01F02CF83046403044890021418101F02FF8304600F0A9FB01282BD1A00702D565
:406640002846FFF74DFEE00602D52846FFF796FEA00601D5FFF7FFF8600601D500F0BEFB200602D5284600F01DF8600702D5284600F0DAFA380402D52846FFF799FB780401
:4066800002D52846FFF786FBE00703D021463046FFF7A6FF6D1C2D062D0EBCD0F8BD0000B417002010B5002801D0002000E00648002808D0014640318A78012A03D1C98AB1
:4066C000807801F03BFB10BDB417002070B505460088FFF70FFF040025D000F056FB002821D0207909281ED02046FEF7B5FE0646E07920210843E071204601F03DFD002873
:4067000013D0294600F012FE4220005D00280ED02325E079DF210840E0712946204601F07AFD284670BD022070BD072070BD002E05D02046FFF788FB0500EAD1F1E70C20E7
:4067400070BD000070B50E460C2500F069FD040011D0002522892946094802F051FE02212046FFF78BFEA07800F03EFF2046FFF73EFE022000E000203070284670BD0000F4
:406780000E200000F8B5044600F04AFD002801D00C20F8BD02216846FFF73AF9012850D1684600782D4F002801D0002601E03E462036002E45D03546002040352870687020
:4067C000A8700620FFF7E0F8208A6882228AE189A08902F0ADF828820246608AA882E18AA08A02F077F8E882288AFEF793FD6873288AFEF77FFDE881184806228778A11DDA
:40680000A830FCF726FB207901281CD06079E870A01D01F0E2FAFB20074010488770217E012915D0C278FB210A40C270B178204601F00CF9012001F0B5FB3046FFF76AFBBA
:40684000F8BD0920F8BD0020E87004200743E4E7C17804221143C170E8E700009417002070B50D46124A010001D0002401E014462034002C1BD0204600F09CFA01280AD1F6
:406880008820484380186030007FFEF75BFF002801D101F02DFF20464030817E491B8176204600F051FD2089294603F05BF870BD9417002070B503460088FFF71BFE040065
:4068C00013D000F062FA00280FD02079092819D02546997840352973204601F082FF0646A878012803D0AA8A02E0022070BDEA880A20424301212046FFF74AF8002E01D19C
:4069000009202071002070BD0EB5002217216B460292198100905A810120029B00990AF0E3FE0EBDF8B5184E0024F079002820D10025AC20FDF77EFE000B21E0204600F070
:406940002FFFFDF777FE07462A46214600F0C6FA01280FD00D48012187838577C477F171002D01D0002000E02030002801D000F0EBFCF8BDAC20FDF75DFE000B641CE4B27B
:406980000028DBD1F8BD0000441800209417002010B5C0060ED50020084A03E0002801D0002100E011460979022904D0401C0006000EF3D010BD00F003F810BDB4170020CF
:4069C00070B5144D002801D0002401E02C4620342179022904D0002901D001F093FA70BD264601224036F27600F0E8FE032020710820FEF7C9FF002030700121F01C00F055
:406A0000BFFE00212046FFF739FDA87B401CA87370BD00009417002010B50C46002121700088FFF767FD03000BD000F0AEF9002807D009481121807A0840C00603D41120A2
:406A400010BD022010BD022020701A8A1889002103F030F8002010BD4017002070B50088FFF748FD040008D000F08FF9002804D0E079C10903D0002070BD022070BDC10632
:406A80008025002908DA2843E07108480221C28A2046FEF77DFFEEE7204600F0E3F90028ECD1E1792943E17170BD000040170020F8B50F46002100910088FFF71BFD0400DE
:406AC00012D000F062F900280ED0E079410641D4617E02264A07002A08DB8907402500291ADA2843E07135E00220F8BD02F0F8FA0021017021894180A1898180217E417033
:406B0000E189C1803E7005460178134802F032FD284602F073FF1DE0204600F051F9012806D068460AF000FD002803D00720F8BD2A20F8BDE07900992843E071204601F0CE
:406B400079FE607E0421304360760448C28A2046FEF71EFF0020F8BD1D040000401700203EB500220F236C460292238100910190628169460EC900200AF0B6FD3EBD000051
:406B8000F8B50446002000902088FFF7B3FC05001AD0FEF761FC002812D02248807AC00710D0284600F0F1F800280DD0287903280CD004280AD0072808D0092828D103E07D
:406BC0000C20F8BD1120F8BD0220F8BD2F464037387801281CD02846FFF79EFC060019D00822211DFCF735F93046A1782030017261881022090A417221460C311838FCF7B6
:406C000028F9B878002807D0012038700098F8BD0D20F8BD0720F8BD284600F013FA0090F8BD00004017002010B5002801D0002400E0094C002C0ED020464030417802292E
:406C400004D1002141702046FEF706FC2046FFF7BFF8FEF71FFE10BDB417002070B503460D460088FFF746FC04000BD000F08DF8002807D012481121807A0840C00603D4F4
:406C8000112070BD022070BD20464030418A008A491C41430804C10C5888884201D2122070BD20822079072802D12046FFF79AF8022028702089002102F024FF002070BD4D
:406CC00040170020016A491C016204D1817E491C4906490E81767047C169491CC16104D1C17E491C4906490EC176704770B500250646002801D0002400E0114C002C1CD097
:406D0000882200212046FCF7ADF8A67000202646207140363070204600F02EF8204601F0F5F9084820820848B577807A1121084000D001202075012070BD002070BD00007D
:406D4000B4170020B80B00004017002010B50020074B084AFF2119541418401CC0B221740428F8D31F2119541018017410BD00004418002094170020002101628176C16157
:406D8000C17620300177417770470079002805D0012803D0022801D0012070470020704740304078012803D0022801D000207047012070474030807F002800D0012070473C
:406DC00040300078002807D0012805D0052803D00E2801D0012070470020704710B500F07BFC0446AC20FDF725FC010B02D02046FFF7B6FE10BD000070B5054604464035B7
:406E0000A87F002823D1FF206075A0788821144A484380186030417F8823491CC9B24177A078584380186030052901D300214177A0788821484380186030467F0677A178C1
:406E40003046FEF77FFC002802D00120A87770BD0220A877A078314600F06CFD70BD00009417002038B5002105460091FFF7A8FF012806D068460AF057FB002803D0072002
:406E800038BD2A2038BD2846009CFEF7E5FA00280BD02146284601F0F7FB05480221C28A2846FEF775FD002038BD112038BD00004017002070B50024074D03E0002C01D045
:406EC000002000E02846FEF783FF641C2406240EF4D0002070BD0000B4170020F0B515468207920F85B0C004C00E02926A469080002D01D0002400E0514C002C29D008467E
:406F000000F04EFC03906846808800280BD00298012845D0022843D003280CD03D20005D012872D086E00398FDF784FB01462046FFF707F87EE00020029002A80AF0D4FAF2
:406F4000002807D03D20005D012876D12046FFF7B9FE72E06846029E8388324600210398FDF7F6FA0398FDF765FB01462046FEF7E8FF284600F042FB01AA21463046FEF782
:406F800069FD002806D030460AF01EFB3D204C21085528E0F5773146204601F085F94CE000200090278968460AF08EFA002802D0002005B0F0BD6846009E8388321D0021FE
:406FC0000398FDF7C5FA0398FDF734FB01462046FEF7B7FF284600F011FB25464035287E00280CD103E02046FFF7BCF925E001AA21463046029BFEF761FD002806D0304653
:407000000AF0D8FA3D202873EDE710E00298FEF7A7FF390A000101433770717068468088B070000AF0703046FFF76EFC05E02046FFF748FE284600F0E1FA0120B9E70000EC
:40704000B417002070B501790546032904D0042904D0072908D109E0052400E006240121FFF7C0F8002805D00D2070BD0824FFF799F8F7E7284600F067F92C71002070BDB5
:40708000FEB5064602F02CF8044602F022F8074602F015F8054602F027F8029002F036F801902570280A6070280CA070280E3546E0704035687B20716771380AA071380C46
:4070C000E071A87B2072E8892849000A6072287CA072288A0522000AE072A87C2073688A000A6073287DA073A88A000AE073204610300091FBF7ADFE0027F770B0780099F1
:4071000000F018FF777101984101029867750143A175080AE07504E0298A308849004018308000F0E9FA3188042200F075FB0128F2D0012031884002FDF782FA1821204686
:4071400000F068FCA88A298AC000FBF7DBFD81B24120C000FDF774FAB07800F030FAE98AB07800F0EBFD00F036FAFEBDA417002010B5044A917B002901D0491E9173FFF7B1
:40718000B5FD10BD94170020F8B5074606464037B87F00283DD0B0788821009048431F4945186035287F0099FEF7E1FA012831D0287F401CC4B2052C00D300240020B877EC
:4071C000FF276F772F77A87702460146009800F02FFD717DFF2903D0304600F058FF777501F086FA00252F462246694630460097FEF720FE0099002902D03046FEF7CFFADF
:40720000641CE4B2052C00D300246D1CEDB2052DEAD3F8BD0320B877F8BD00009417002000B5022000F002F800BD000010B502460021084B03E0002901D0002000E0184638
